:1000000019C1000047C1000045C1000043C1000004
:1000100041C100003FC100003DC100003BC10000E4
:1000200039C1000037C1000035C1000033C10000F4
:1000300031C100002FC100002DC10000BAC4000072
:1000400029C1000027C1000025C1000023C1000014
:1000500021C100001FC100001DC1000060C40000DC
:1000600019C10000D6C20000ABC2000013C10000DD
:1000700011C100000FC100000DC100000BC1000044
:1000800009C1000007C1000005C1000003C1000054
:1000900061C2000036C20000FDC00000FBC00000CD
:1000A000F9C00000F7C00000F5C00000F3C0000078
:1000B000F1C00000EFC00000EDC00000EBC0000088
:1000C000E9C00000E7C00000E5C00000E3C0000098
:1000D000E1C00000DFC00000DDC00000DBC00000A8
:1000E000D9C000006E037103600364036803A803B2
:1000F000750379037F03830387038D0391039503BE
:10010000A8039B039F03A303E303E803ED03F703A3
:1001100001047A040B0413041B0425042F0439047E
:10012000480452047A045C046604700400000A0B5C
:1001300002090C0D0E080703040100000000000076
:1001400000000000000000000000000000000000AF
:10015000000000000000000012111000000000006C
:10016000000000000000000000000000000000008F
:10017000000000002200250028002B002E00310086
:10018000340002010000050108010B0100002100FC
:10019000240027002A002D00300033000101000058
:1001A000040107010A0105050505070508080808F7
:1001B000020202020A0A08080404040401010101FF
:1001C00001010101030303030303030304070707FA
:1001D0000C0C0C0C0C0C0C0C02020202060606069F
:1001E000060606060B0B0B0B0B0B0B0B010210206C
:1001F000200808102040102040800201020108045D
:1002000002010102040810204080804020100804F0
:100210000201800402018040201008040201080449
:10022000020101020408102040800102040810208D
:100230004080B70C11241FBECFEFD1E2DEBFCDBF8F
:1002400000E00CBF24E0A4EBB2E001C01D92AA368E
:10025000B207E1F712E0A0E0B2E0E6EFFAE100E079
:100260000BBF02C007900D92A43BB107D9F711E074
:10027000CAE1D1E000E006C021970109802FFE010C
:100280000E946D0DC931D10780E00807A9F783D519
:100290000C94790DB5CE089580E090E00895FC01AE
:1002A000538D448D252F30E0842F90E0821B930BDB
:1002B000541710F0CF96089501970895FC01918D81
:1002C000828D981761F0828DDF01A80FB11D5D96B8
:1002D0008C91928D9F5F9F73928F90E008958FEF26
:1002E0009FEF0895FC01918D828D981731F0828DDA
:1002F000E80FF11D858D90E008958FEF9FEF089531
:10030000FC01918D228D892F90E0805C9F4F821B94
:1003100091098F73992708958BED92E0F1DF21E029
:10032000892B09F420E0822F089588E793E0E8DF25
:1003300021E0892B09F420E0822F0895FC01848DAF
:10034000DF01A80FB11DA35ABF4F2C91848D90E0FF
:1003500001968F739927848FA689B7892C93A089DA
:10036000B1898C91837080648C93938D848D981364
:1003700006C00288F389E02D80818F7D80830895F7
:10038000EF92FF920F931F93CF93DF93EC0181E0E5
:10039000888F9B8D8C8D981305C0E889F9898081A1
:1003A00085FD25C0F62E0B8D10E00F5F1F4F0F73DC
:1003B0001127E02E8C8DE8120BC00FB607FCFACF88
:1003C000E889F989808185FFF5CFCE01B7DFF2CFCB
:1003D0008B8DFE01E80FF11DE35AFF4FF0829FB7AE
:1003E000F8940B8FEA89FB89808180620AC09FB7ED
:1003F000F894EE89FF896083E889F98980818370A8
:10040000806480839FBF81E090E0DF91CF911F9156
:100410000F91FF90EF900895CF93DF93EC01888DBB
:100420008823C1F0EA89FB89808185FD05C0A88900
:10043000B9898C9186FD0EC00FB607FCF5CF80817F
:1004400085FFF2CFA889B9898C9185FFEDCFCE01C8
:1004500075DFE8CFDF91CF91089580E090E0892BA0
:1004600019F063DF811120C080E090E0892B19F042
:1004700053DF81111CC080E090E0892B41F080E0C7
:1004800090E0892B21F00E940000811113C080E0D0
:1004900090E0892BA1F080E090E0892B81F00E9410
:1004A000000081110AC008950E940000DDCF0E9463
:1004B0000000E1CF0E940000EACF0C9400000895F4
:1004C0006FE872E08BED92E02CD480916804BFD38A
:1004D00065E972E08BED92E024D48091670483306B
:1004E00019F46DE972E009C0843019F462EA72E02F
:1004F00004C0853029F467EA72E08BED92E0FFC317
:1005000008951F920F920FB60F9211240BB60F92FF
:100510002F933F934F935F936F937F938F939F930B
:10052000AF93BF93EF93FF938BED92E007DFFF91C3
:10053000EF91BF91AF919F918F917F916F915F915B
:100540004F913F912F910F900BBE0F900FBE0F90C8
:100550001F9018951F920F920FB60F9211240BB691
:100560000F922F938F939F93EF93FF93E091EB0262
:10057000F091EC028081E091F102F091F20282FDB3
:1005800012C090818091F4028F5F8F732091F502E9
:10059000821751F0E091F402F0E0E552FD4F958FA3
:1005A0008093F40201C08081FF91EF919F918F9120
:1005B0002F910F900BBE0F900FBE0F901F901895AC
:1005C0001F920F920FB60F9211240BB60F922F931A
:1005D0003F934F935F936F937F938F939F93AF93CB
:1005E000BF93EF93FF9388E793E0A8DEFF91EF912D
:1005F000BF91AF919F918F917F916F915F914F913B
:100600003F912F910F900BBE0F900FBE0F901F9038
:1006100018951F920F920FB60F9211240BB60F92DE
:100620002F938F939F93EF93FF93E0918803F09123
:1006300089038081E0918E03F0918F0382FD12C0C7
:100640009081809191038F5F8F7320919203821725
:1006500051F0E0919103F0E0E858FC4F958F8093C2
:10066000910301C08081FF91EF919F918F912F9114
:100670000F900BBE0F900FBE0F901F901895362F46
:1006800090E0FC01E45DFE4F4491FC01E451FE4F1B
:100690002491FC01EA55FE4F9491992309F46CC012
:1006A000442309F455C050E0FA013197E231F105D5
:1006B00008F04EC08827EE58FF4F8F4F0C946D0DF9
:1006C000809180008F7707C0809180008F7D03C06C
:1006D00080918000877F809380003AC084B58F77B7
:1006E00002C084B58F7D84BD33C08091B0008F7708
:1006F00003C08091B0008F7D8093B00029C08091AD
:1007000090008F7707C0809190008F7D03C080910B
:100710009000877F809390001BC08091A0008F770E
:1007200007C08091A0008F7D03C08091A000877FCB
:100730008093A0000DC0809120018F7707C0809129
:1007400020018F7D03C080912001877F809320014D
:10075000E92FF0E0EE0FFF1FEE58FE4FA591B49188
:100760009FB7F894311104C08C912095282302C0C2
:10077000EC912E2B2C939FBF08951F93CF93DF9363
:10078000182FEB01B7D1209711F460E004C0CF3FE0
:10079000D10531F461E0812FDF91CF911F916FCFAF
:1007A000E12FF0E0E45DFE4FE4918E2F90E0FC013C
:1007B0003197E231F10508F09DC08827EC57FF4FD3
:1007C0008F4F0C946D0D84B5806884BDC7BD97C0F4
:1007D00084B5806284BDC8BD92C08091800080686D
:1007E00080938000D0938900C093880088C0809156
:1007F0008000806280938000D0938B00C0938A0039
:100800007EC080918000886080938000D0938D00AE
:10081000C0938C0074C08091B00080688093B00059
:10082000C093B3006CC08091B00080628093B00030
:10083000C093B40064C08091900080688093900061
:10084000D0939900C09398005AC080919000806224
:1008500080939000D0939B00C0939A0050C08091E9
:100860009000886080939000D0939D00C0939C007E
:1008700046C08091A00080688093A0008091A00075
:100880008F7B8093A000D093A900C093A80037C0AD
:100890008091A00080628093A000D093AB00C093B1
:1008A000AA002DC08091A00088608093A000D09302
:1008B000AD00C093AC0023C080912001806880937C
:1008C0002001D0932901C093280119C080912001F3
:1008D000806280932001D0932B01C0932A010FC026
:1008E00080912001886080932001D0932D01C093D6
:1008F0002C0105C0C038D1050CF04CCF46CFDF919C
:10090000CF911F9108952FB7F8946091D7027091FD
:10091000D8028091D9029091DA022FBF08951F92D8
:100920000F920FB60F9211242F933F938F939F93A3
:10093000AF93BF938091D7029091D802A091D90232
:10094000B091DA023091D60223E0230F2D3720F444
:100950000196A11DB11D05C026E8230F0296A11D19
:10096000B11D2093D6028093D7029093D802A09312
:10097000D902B093DA028091D2029091D302A09171
:10098000D402B091D5020196A11DB11D8093D2026F
:100990009093D302A093D402B093D502BF91AF91AC
:1009A0009F918F913F912F910F900FBE0F901F90AD
:1009B00018951F920F920FB60F9211240BB60F923B
:1009C0002F933F934F935F936F937F938F939F9357
:1009D000AF93BF93EF93FF938091B4029091B502D0
:1009E0008093B2008091CE029091CF02A091D0026C
:1009F000B091D1020196A11DB11D8093CE029093BA
:100A0000CF02A093D002B093D1028091CE029091F8
:100A1000CF02A091D002B091D1024091B802509182
:100A2000B9026091BA027091BB0284179507A607BC
:100A3000B70710F18091CD0281111EC081E0809333
:100A4000CD028091CE029091CF02A091D002B091C0
:100A5000D102841B950BA60BB70B8093CE0290930B
:100A6000CF02A093D002B093D102E091B602F091F0
:100A7000B70219951092CD02FF91EF91BF91AF91FE
:100A80009F918F917F916F915F914F913F912F91A6
:100A90000F900BBE0F900FBE0F901F901895CF9226
:100AA000DF92EF92FF920F931F93CF93DF936C012E
:100AB0007A018B01C0E0D0E0CE15DF0581F0D801CE
:100AC0006D918D01D601ED91FC910190F081E02DA9
:100AD000C6011995892B11F02196EECF7E01C70131
:100AE000DF91CF911F910F91FF90EF90DF90CF900A
:100AF0000895FBD790E0FC01E451FE4F2491FC01E6
:100B0000EA55FE4F8491882399F090E0880F991F51
:100B1000FC01E457FE4FA591B491FC01EE58FE4F45
:100B2000859194918FB7F894EC91E22BEC938FBF61
:100B30000895FC01A089B18982E08C93A485B585D4
:100B40001C92A685B7858FEC8C93108EA489B589ED
:100B500086E08C93A289B3898C9180618C93A28961
:100B6000B3898C9188608C93A289B3898C918068B9
:100B70008C930288F389E02D80818F7D8083089596
:100B8000CF93DF93CDE5D4E060E070E08A81F5DDBE
:100B900060E070E08B81DF91CF91EFCDCF93DF9359
:100BA000CDE5D4E060E08C816ADD61E08D8167DDB8
:100BB00061E08E8164DD60E08F81DF91CF915FCD58
:100BC000823091F0833009F1813001F560E080914D
:100BD000610455DD61E08091620451DD60E0809147
:100BE00063044DDD61E00DC061E08091610447DD8B
:100BF00060E08091620443DD61E0809163043FDD49
:100C000060E0809164043BDD01C0C8DF60915E0458
:100C100070E080915F04B1DD60915D0470E08091CF
:100C20006004ABCD6115710579F0FB0101900020E6
:100C3000E9F73197AF01461B570BDC01ED91FC91B1
:100C40000280F381E02D199480E090E00895CF9325
:100C5000DF93682F8BED92E093DBEC0165E272E0AD
:100C60008BED92E0DFDF8C0F9D1FDF91CF91089518
:100C70008F929F92AF92BF92EF92FF920F931F932A
:100C8000CF93DF93CDB7DEB7A1970FB6F894DEBF51
:100C90000FBECDBF7C01FA01CB0119A2223008F4AE
:100CA0002AE08E010F5D1F4F822E912CA12CB12CBA
:100CB000BF01A5019401EFD6F901CA010150110944
:100CC0006A3014F4605D01C0695CD8016C93232B19
:100CD000242B252B69F7B801C701A4DFA1960FB615
:100CE000F894DEBF0FBECDBFDF91CF911F910F9162
:100CF000FF90EF90BF90AF909F908F9008950F93CB
:100D00001F93CF93DF93EC018DDF8C0165E272E0DE
:100D1000CE0188DF800F911FDF91CF911F910F913E
:100D2000089580CFCF93DF93CDE5D4E08A876BEA37
:100D300072E08BED92E0F5DF4A8550E060E070E014
:100D40002AE08BED92E094DF65E272E08BED92E0B9
:100D5000DF91CF9167CFCF93DF93CDE5D4E048818A
:100D600050E060E070E02AE08BED92E081DF6DE220
:100D700072E08BED92E0D5DF498150E060E070E0F9
:100D80002AE08BED92E074DF65E272E08BED92E099
:100D9000DF91CF9147CF789484B5826084BD84B5CC
:100DA000816084BD85B5826085BD85B5816085BD66
:100DB00080916E00816080936E001092810080911E
:100DC00081008260809381008091810081608093A6
:100DD0008100809180008160809380008091B100CB
:100DE00084608093B1008091B00081608093B000F6
:100DF0008091910082608093910080919100816048
:100E00008093910080919000816080939000809108
:100E1000A10082608093A1008091A10081608093F5
:100E2000A1008091A00081608093A00080912101A9
:100E30008260809321018091210181608093210152
:100E40008091200181608093200180917A008460EC
:100E500080937A0080917A00826080937A008091FA
:100E60007A00816080937A0080917A008068809314
:100E70007A001092C1001092590410925A041092F4
:100E80005B0410925C0410921704109218041092E4
:100E9000190410921A0437DD6B017C014B015C01CF
:100EA00028EB820E2BE0921EA11CB11C2CDD6C15D0
:100EB0007D058E059F0528F086169706A806B906BB
:100EC000A8F788E793E0909358048093570431DEA5
:100ED0001ADD60931704709318048093190490939B
:100EE0001A0466E172E0809157049091580419DF6A
:100EF0000ADD6B017C014B015C013AE0830E911C21
:100F0000A11CB11C00DD6C157D058E059F0528F028
:100F100086169706A806B906A8F781E080932B04E9
:100F200088E793E006DE8BED92E003DE8EEE92E042
:100F3000A0E0B0E08093B8029093B902A093BA0207
:100F4000B093BB0280E692E09093B7028093B60222
:100F5000809170008E7F809370008091B0008C7FB4
:100F60008093B0008091B100877F8093B100809121
:100F7000B6008F7D8093B600809170008D7F809346
:100F800070008091B10084608093B1008091B100C5
:100F90008C7F8093B10086E090E09093B5028093BF
:100FA000B4028DE0A7DD8CE0A5DD8BE0A3DD60E081
:100FB0008DE065DB60E08CE062DB60E08BE05FDBB6
:100FC0001092C4021092C3021092BE021092BD028F
:100FD00084EF482E55245394612C712CCFEFD0E030
:100FE00098E1292E3324339406E111E08CDC672B41
:100FF000682B692B39F487DC623071058105910516
:1010000008F4F7C080DCC090C902D090CA02E0901A
:10101000CB02F090CC026C157D058E059F0540F447
:101020006093C9027093CA028093CB029093CC0262
:10103000C090C902D090CA02E090CB02F090CC02DE
:101040009B01AC012C193D094E095F0969017A0128
:101050003AEFC316D104E104F10408F4CAC0609366
:10106000C9027093CA028093CB029093CC02409243
:101070002304509224046092250470922604109256
:101080002704109228041092290410922A048091B7
:101090001B0490911C04A0911D04B0911E04809328
:1010A0001F0490932004A0932104B09322042BDC0E
:1010B00060931B0470931C0480931D0490931E0482
:1010C00022DC6093170470931804809319049093A2
:1010D0001A0419DC6B017C0168E272E0809157040C
:1010E000909158041EDE2AE041E050E060E070E09C
:1010F0008091570490915804BBDD6FE272E08091BB
:101100005704909158040DDE2AE0B701A6018091A2
:10111000570490915804ACDD61E372E0809157046C
:1011200090915804FEDD80911B0490911C04A091C5
:101130001D04B0911E04B701A601481B590B6A0B90
:101140007B0B2AE0809157049091580491DD61E374
:1011500072E08091570490915804E3DD40911B04A4
:1011600050911C0460911D0470911E0480911F0415
:1011700090912004A0912104B0912204481B590BA6
:101180006A0B7B0B2AE0809157049091580470DD24
:1011900063E372E08091570490915804C2DDB3DBA1
:1011A000AB01BC012AE0809157049091580460DDA6
:1011B00065E372E08091570490915804A0DDA3DBB1
:1011C0006B017C014B015C0145E0840E911CA11C6C
:1011D000B11C99DB6C157D058E059F0508F09BC23F
:1011E00092DB60931B0470931C0480931D04909306
:1011F0001E048091C3029091C4028E36910591F134
:1012000030F40097D9F08835910551F09DC0803EAB
:10121000910509F44BC0893E910509F481C094C041
:1012200080916804803251F0813209F4A9DC809108
:101230006804893609F076C284E074DD80E2809328
:1012400068048BED92E05CD8892B29F08BED92E05D
:1012500035D88093680488E590E09093C402809329
:10126000C30276C080916704853009F46AC2833076
:1012700009F479C2843011F7809168048134B9F59A
:1012800081E09EDC60E472E08BED92E038DD3BDBD8
:101290006093C5027093C6028093C7029093C80200
:1012A00040EE50E05093C4024093C3022CDBC09048
:1012B000C502D090C602E090C702F090C802AB0110
:1012C000BC014C195D096E097F0980910202909161
:1012D0000302A0E0B0E0481759076A077B07C0F196
:1012E0004FDC67E572E08BED92E009DDA7CF843437
:1012F00009F0F4C282E064DC6AE672E08BED92E011
:10130000FEDC01DB6093C5027093C6028093C702C6
:101310009093C80289EE90E09093C4028093C30238
:10132000F2DAC090C502D090C602E090C702F090F9
:10133000C802AB01BC014C195D096E097F0980919F
:10134000000290910102C5CF1092C4021092C30214
:101350008091BD029091BE028D3121E0920709F487
:10136000F8C0B8F4813141E0940709F471C038F451
:10137000009741F18F30914009F441C0C5C18631D9
:1013800031E0930709F490C08831914009F4B3C06B
:10139000BBC1863251E0950709F459C150F48F3131
:1013A00031E0930709F4FEC08432914009F426C16C
:1013B000ABC18C3251E0950709F47AC18433914076
:1013C00009F0A2C180916904882309F48AC11092AE
:1013D000BC026091BC026F3F61F170E08DE0CDD93D
:1013E00092DA6093BF027093C0028093C10290931F
:1013F000C2028FE091E09093BE028093BD0283DA37
:10140000C090BF02D090C002E090C102F090C20232
:10141000DC01CB018C199D09AE09BF090597A10517
:10142000B10508F475C18091BC028F5F8093BC0246
:10143000D0CF69DA6093BF027093C0028093C1027B
:101440009093C20281E191E09093BE028093BD022D
:101450005ADAC090BF02D090C002E090C102F09072
:10146000C2026C157D058E059F0509F451C11092CD
:10147000BC028091BC028F3F89F1E82EF12CBE01A5
:101480006E197F098DE079D9B7018CE076D93BDA06
:101490006093BF027093C0028093C1029093C20216
:1014A0001093BE020093BD022EDAC090BF02D0900E
:1014B000C002E090C102F090C202DC01CB018C19A5
:1014C0009D09AE09BF090597A105B10508F420C122
:1014D0008091BC028F5F8093BC02CBCF14DA609303
:1014E000BF027093C0028093C1029093C2023092F7
:1014F000BE022092BD0207DAC090BF02D090C002A7
:10150000E090C102F090C2026C157D058E059F052A
:1015100009F4FEC01092BC028091BC028F3F99F189
:10152000E82EF12CBE016E197F098CE026D9B70197
:101530008BE023D9E8D96093BF027093C0028093F7
:10154000C1029093C2024DE151E05093BE0240931C
:10155000BD02D9D9C090BF02D090C002E090C102B4
:10156000F090C202DC01CB018C199D09AE09BF09C4
:101570000597A105B10508F4CBC08091BC028F5F2F
:101580008093BC02C9CFBFD96093BF027093C002E1
:101590008093C1029093C2028FE191E09093BE02CA
:1015A0008093BD02B0D9C090BF02D090C002E0903D
:1015B000C102F090C2026C157D058E059F0509F4ED
:1015C000A7C01092BC028091BC028F3F89F1E82E27
:1015D000F12CB7018CE0D1D8B7018DE0CED893D9EA
:1015E0006093BF027093C0028093C1029093C202C5
:1015F00024E231E03093BE022093BD0284D9C09032
:10160000BF02D090C002E090C102F090C202DC01A3
:10161000CB018C199D09AE09BF090597A105B1053C
:1016200008F476C08091BC028F5F8093BC02CBCF60
:101630006AD96093BF027093C0028093C1029093F5
:10164000C20246E251E05093BE024093BD025BD914
:10165000C090BF02D090C002E090C102F090C202E0
:101660006C157D058E059F0509F452C01092BC02D1
:101670008091BC028F3F09F4A5CE7E01E81AF108E3
:10168000B7018CE07AD8B7018DE077D8B7018BE04D
:1016900074D839D96093BF027093C0028093C1029D
:1016A0009093C2028CE291E09093BE028093BD02BF
:1016B0002AD9C090BF02D090C002E090C102F09041
:1016C000C202DC01CB018C199D09AE09BF09059747
:1016D000A105B105E8F08091BC028F5F8093BC0248
:1016E000C7CF60E070E08DE048D860E070E08CE04B
:1016F00044D860E070E08BE040D884E391E09093C0
:10170000BE028093BD0204C01092BE021092BD02C0
:101710000E942D026BCC86169706A806B90608F023
:1017200058CD5ECD8D3611F483E087CD813711F42D
:1017300085E083CD2EE630E03093C4022093C302CF
:1017400007CE8BED92E00E948001892B09F476CDC3
:101750008BED92E00E945E018093680480935E04AA
:1017600080935D04E1CF80916804803209F06FDAE4
:10177000809168048D3409F4A6C0BCF4813409F466
:1017800081C054F48B3209F48BC08D3209F493C0BC
:10179000833209F053CDA0C08B3409F478C024F50E
:1017A000843409F04BCD82E070C08735A1F16CF430
:1017B000803509F47AC0833509F43FC08F3409F0CD
:1017C0003DCD80915E04865F68C0843609F45CC0BC
:1017D00024F4813609F458C031CD833709F450C060
:1017E000873709F44DC02ACD80916904882349F0D8
:1017F00060E070E0809165040E94BD03109269046E
:101800001DCD61E070E0809165040E94BD0381E020
:101810008093690413CDC2D960915E0470E0809119
:101820005F040E94BD0360915D0470E080916004DC
:101830000E94BD036CE372E056CD61E080916104CB
:101840000E943F0360E0809162040E943F0360E0D9
:10185000809163040E943F0361E0809164040E94D0
:101860003F0360915E0470E080915F040E94BD03BD
:1018700060915D0470E0809160040E94BD03DECC45
:101880007FD9DCCC81E001C083E09AD9D7CC8091AC
:101890005E048A50833308F482E380935E041CC0A4
:1018A00080915E04865F80935E0480915D04865F14
:1018B00080935D0411C080915E048A50833308F4E4
:1018C00082E380935E0480915D048A5080935D047E
:1018D000833310F482E3ECCF3EDAB0CC8B3289F460
:1018E00080910202909103028C599F4F90930302C2
:1018F0008093020280910002909101028C599F4FC7
:1019000013C08D3209F09ACC8091020290910302AB
:101910008456910990930302809302028091000201
:1019200090910102845691099093010280930002E4
:1019300062E872E08BED92E0F4D94091020250919E
:10194000030260E070E02AE08BED92E091D94091D3
:1019500000025091010260E070E02AE08BED92E01D
:1019600087D965E272E08BED92E05CD967CCCF93CA
:10197000DF93EBEDF2E01382128248EE53E060E079
:1019800070E0448355836683778388E092E0918397
:1019900080832DEC30E0358724872CEC30E03787CE
:1019A000268728EC30E0318B208B29EC30E0338B1C
:1019B000228B2AEC30E0358B248B2EEC30E0378BF9
:1019C000268B118E128E138E148EE8E7F3E01382AD
:1019D000128244835583668377839183808385EC69
:1019E00090E09587848784EC90E09787868780ECE9
:1019F00090E0918B808B81EC90E0938B828B82ECDA
:101A000090E0958B848B86EC90E0978B868B118E83
:101A1000128E138E148EE5E1F4E016821782108682
:101A20001186128613861486158616861786108AE6
:101A3000118A128A138A148A158ACDE5D4E081E0CE
:101A40008C8784E68883898384E08A8785E08A831B
:101A500086E08B838EE28C8380E38D8382E38E83AA
:101A600084E38F8383E0888780E28B8761E070E086
:101A700083E00E94BD038A813DD88B813BD88C8155
:101A800039D88D8137D88E8135D88F8133D88885E4
:101A9000DF91CF912FC8A1E21A2EAA1BBB1BFD011B
:101AA0000DC0AA1FBB1FEE1FFF1FA217B307E4073D
:101AB000F50720F0A21BB30BE40BF50B661F771F95
:101AC000881F991F1A9469F7609570958095909575
:101AD0009B01AC01BD01CF010895EE0FFF1F881FD0
:101AE0008BBF0790F691E02D199481E090E0F89477
:061AF00000C0F894FFCFD6
:101AF600BC02200300000000C0014F054F010C028C
:101B060080015E017201564D4450565F317C315F53
:101B1600564D4450560D0A00564D4450455F003A06
:101B2600323A007C005F564D44504500474F310025
:101B36004C656674205475726E5F74696D65205FBE
:101B460020626567696E005475726E5F74696D65B3
:101B56002054696D65206F7574005269676874203A
:101B66005475726E5F74696D65205F206265676982
:101B76006E005475726E5F74696D65203D2000635A
:101B860068203D20006D6F6465203D20004D4F5656
:101B9600450046494E4400534554004D6F64652048
:041BA6003D200000DE
:020000023000CC
:10E000000D9489F10D94B2F10D94B2F10D94B2F129
:10E010000D94B2F10D94B2F10D94B2F10D94B2F1F0
:10E020000D94B2F10D94B2F10D94B2F10D94B2F1E0
:10E030000D94B2F10D94B2F10D94B2F10D94B2F1D0
:10E040000D94B2F10D94B2F10D94B2F10D94B2F1C0
:10E050000D94B2F10D94B2F10D94B2F10D94B2F1B0
:10E060000D94B2F10D94B2F10D94B2F10D94B2F1A0
:10E070000D94B2F10D94B2F10D94B2F10D94B2F190
:10E080000D94B2F10D94B2F10D94B2F10D94B2F180
:10E090000D94B2F10D94B2F10D94B2F10D94B2F170
:10E0A0000D94B2F10D94B2F10D94B2F10D94B2F160
:10E0B0000D94B2F10D94B2F10D94B2F10D94B2F150
:10E0C0000D94B2F10D94B2F10D94B2F10D94B2F140
:10E0D0000D94B2F10D94B2F10D94B2F10D94B2F130
:10E0E0000D94B2F141546D656761323536300041AF
:10E0F000726475696E6F206578706C6F72657220DE
:10E1000073746B3530305632206279204D4C530099
:10E11000426F6F746C6F616465723E004875683F52
:10E1200000436F6D70696C6564206F6E203D200048
:10E130004350552054797065202020203D20005FF9
:10E140005F4156525F415243485F5F3D2000415658
:10E1500052204C696243205665723D20004743437C
:10E160002056657273696F6E203D20004350552024
:10E1700049442020202020203D20004C6F7720663D
:10E18000757365202020203D20004869676820665F
:10E190007573652020203D200045787420667573D6
:10E1A00065202020203D20004C6F636B2066757336
:10E1B000652020203D20004D617220203720323024
:10E1C000313300312E362E3800342E332E350056A2
:10E1D00023202020414444522020206F7020636F70
:10E1E00064652020202020696E73747275637469E1
:10E1F0006F6E2061646472202020496E74657272B3
:10E20000757074006E6F20766563746F7200726A49
:10E210006D702020006A6D70200057686174207056
:10E220006F72743A00506F7274206E6F7420737541
:10E2300070706F72746564004D7573742062652030
:10E2400061206C6574746572002000577269747483
:10E25000696E672045450052656164696E672045B7
:10E26000450045452065727220636E743D00504F35
:10E27000525400303D5A65726F2061646472003FF1
:10E280003D43505520737461747300403D454550C3
:10E29000524F4D207465737400423D426C696E6B41
:10E2A000204C454400453D44756D70204545505215
:10E2B0004F4D00463D44756D7020464C415348001B
:10E2C000483D48656C70004C3D4C69737420492F83
:10E2D0004F20506F72747300513D51756974005234
:10E2E0003D44756D702052414D00563D73686F7707
:10E2F00020696E7465727275707420566563746FF0
:10E30000727300593D506F727420626C696E6B00BD
:10E310002A0011241FBECFEFD1E2DEBFCDBF01E046
:10E320000CBF12E0A0E0B2E0EEE1FDEF03E00BBFB6
:10E3300002C007900D92A030B107D9F712E0A0E01B
:10E34000B2E001C01D92AE30B107E1F70F9460F367
:10E350000D948DFE01E20EBF0FEF0DBF11241FBE05
:10E360000D9460F30D9400F020E030E040ED57E0B4
:10E3700005C0FA013197F1F72F5F3F4F2817390792
:10E38000C0F308959C01260F311DC901A0E0B0E043
:10E390002F5F3F4FABBFFC018791882361F08093D3
:10E3A000C6008091C00086FFFCCF8091C0008064D1
:10E3B0008093C000EACF08958DE08093C6008091DD
:10E3C000C00086FFFCCF8091C00080648093C000B5
:10E3D0008AE08093C6008091C00086FFFCCF8091C8
:10E3E000C00080648093C00008950F94C2F10F9420
:10E3F000DCF10895FC019081992359F09093C600B7
:10E400008091C00086FFFCCF8091C0008064809323
:10E41000C0003196992379F70895282F982F929567
:10E420009F70892F805D8A3308F0895F8093C600D2
:10E430008091C00086FFFCCF8091C00080648093F3
:10E44000C000822F8F70982F905D9A3308F0995FEB
:10E450009093C6008091C00086FFFCCF8091C000E1
:10E4600080648093C00008959C01FB01853691056E
:10E470001CF46330710594F0C90164E670E00F94F8
:10E480002EFE605D7F4F6093C6008091C00086FFC6
:10E49000FCCF8091C00080648093C0002B30310598
:10E4A00014F43297B4F0C90164E670E00F942EFEC4
:10E4B0006AE070E00F942EFE605D7F4F6093C600AF
:10E4C0008091C00086FFFCCF8091C0008064809363
:10E4D000C000C9016AE070E00F942EFEC0968093E0
:10E4E000C6008091C00086FFFCCF8091C000806490
:10E4F0008093C00008951F93182F8EE692EE60E07F
:10E500000F94C2F11093C6008091C00086FFFCCF2B
:10E510008091C00080648093C0000F94DCF11F9153
:10E5200008952F923F924F925F926F927F928F92B7
:10E530009F92AF92BF92CF92DF92EF92FF920F9392
:10E540001F93DF93CF93CDB7DEB762970FB6F894E2
:10E55000DEBF0FBECDBF382E622ECA01DB015C01CB
:10E560006D01772420E2222E2E010894411C511CBB
:10E570008BC081E0A81680E0B80681E0C80680E084
:10E58000D80628F0C601AA27BB270F940DF2BB2797
:10E59000AD2D9C2D8B2D0F940DF28A2D0F940DF225
:10E5A0002092C6008091C00086FFFCCF8091C00001
:10E5B00080648093C0009DE29093C6008091C0006B
:10E5C00086FFFCCF8091C00080648093C0002092C1
:10E5D000C6008091C00086FFFCCF8091C00080649F
:10E5E0008093C00019828601750188249924A1E0D6
:10E5F0003A1651F03A1620F0B2E03B1661F409C029
:10E600000BBFF701779007C0C7010F9477FE782EF4
:10E6100002C0F7017080872D0F940DF22092C60082
:10E620008091C00086FFFCCF8091C0008064809301
:10E63000C000872D8052F401EF70F0708F3520F408
:10E64000E40DF51D708204C0E40DF51D8EE280839B
:10E650000894E11CF11C011D111D0894811C911CE2
:10E6600090E18916910409F0C2CF80E190E0A0E02A
:10E67000B0E0A80EB91ECA1EDB1E198AC2010F9493
:10E68000FAF10F94DCF16A94662009F072CF629679
:10E690000FB6F894DEBF0FBECDBFCF91DF911F91B3
:10E6A0000F91FF90EF90DF90CF90BF90AF909F9031
:10E6B0008F907F906F905F904F903F902F90089534
:10E6C0002F923F924F925F926F927F928F929F9282
:10E6D000AF92BF92CF92DF92EF92FF920F931F9370
:10E6E000DF93CF93CDB7DEB7CD53D1400FB6F894BB
:10E6F000DEBF0FBECDBF01E20EBF0FEF0DBF94B75F
:10E70000F894A89514BE80916000886180936000A1
:10E7100010926000789493FF05C0E0910002F091A0
:10E7200001021995279A2F9A8091C00082608093E8
:10E73000C00080E18093C40088E18093C1000000A4
:10E74000EE24FF24870144E0A42EB12CCC24DD2448
:10E7500024C0C5010197F1F70894E11CF11C011DCB
:10E76000111D21E2E2162EE4F20620E0020720E06D
:10E77000120718F031E0C32ED12CC801B70127ECE5
:10E780003BE140E050E00F9441FE611571058105C9
:10E79000910519F485B1805885B98091C00087FD35
:10E7A00003C0C114D104A9F2A6014F5F5F4FC25E3E
:10E7B000DE4F59834883CE51D140C25EDE4F8881FF
:10E7C0009981CE51D140019711F00D9410FEC05D9A
:10E7D000DE4F19821882C053D14060E0C15DDE4F28
:10E7E0001882CF52D14088249924C35DDE4F19820C
:10E7F0001882CD52D140C05EDE4F188219821A8233
:10E800001B82C052D140CE5CDE4F188219821A8220
:10E810001B82C253D140EE24FF2487010BBFF701B6
:10E8200007911691C45CDE4F19830883CC53D14005
:10E830000D940BFEC25EDE4F28813981CE51D1404E
:10E840002130310509F52091C600C25EDE4F1982E4
:10E850001882CE51D14022C02F5F3F4F4F4F5F4FA4
:10E86000213082E138078AE7480780E0580780F0C6
:10E87000C45CDE4FE881F981CC53D140EF5FFF4F9C
:10E8800019F0EE27FF27099420E030E040E050E047
:10E890008091C00087FFE0CF2091C600C35DDE4FAE
:10E8A00048815981CD52D1404F5F5F4FC35DDE4FEC
:10E8B00059834883CD52D140213209F063C64A3092
:10E8C000510508F05FC60894811C911C53E0851621
:10E8D000910409F059C600E010E018C081E280936D
:10E8E000C6008091C00086FFFCCF8091C00080648C
:10E8F0008093C0002F5F3F4F2931310579F70F9486
:10E90000DCF10F5F1F4F0530110519F020E030E0FA
:10E91000E5CF10920A0210920B0210920C02109294
:10E920000D02109206021092070210920802109235
:10E930000902109202021092030210920402109235
:10E9400005028FEE90EE60E00F94F5F180E191EE1C
:10E9500060E00F94C2F18091C00087FFFCCF9091DE
:10E96000C600903608F09F759032B8F09093C600BC
:10E970008091C00086FFFCCF8091C00080648093AE
:10E98000C000A0E2A093C6008091C00086FFFCCF2B
:10E990008091C00080648093C000983409F4D7C18E
:10E9A0009934B8F4923409F459C1933458F490333B
:10E9B00019F1903308F4E3C59F33A1F1903409F0C5
:10E9C000DEC5BDC0953409F470C1963409F0D7C5D1
:10E9D00098C1923509F42BC2933538F49C3409F46C
:10E9E000F5C1913509F0CBC518C2963509F445C279
:10E9F000993509F0C4C567C483E792EE62E00F94CD
:10EA0000F5F110920602109207021092080210927D
:10EA1000090210920A0210920B0210920C0210923C
:10EA20000D0213C18FE792EE62E00F94F5F18FEEC5
:10EA300090EE60E00F94F5F181E291EE60E00F94CA
:10EA4000C2F187EB91EE60E00F94F5F180E391EE77
:10EA500060E00F94C2F184EE90EE60E00F94F5F167
:10EA60008FE391EE60E00F94C2F186E090E061E008
:10EA700070E00F9434F20F94DCF18DE591EE60E0DC
:10EA80000F94C2F189EC91EE60E00F94F5F18EE401
:10EA900091EE60E00F94C2F183EC91EE60E00F9490
:10EAA000F5F18CE691EE60E00F94C2F18EE10F94E7
:10EAB0000DF288E90F940DF281E00F940DF20F949E
:10EAC000DCF18BE791EE60E00F94C2F119E0E0E039
:10EAD000F0E010935700E4918E2F0F940DF20F94F5
:10EAE000DCF18AE891EE60E00F94C2F1E3E0F0E03F
:10EAF00010935700E4918E2F0F940DF20F94DCF1D8
:10EB000089E991EE60E00F94C2F1E2E0F0E0109349
:10EB10005700E4918E2F0F940DF20F94DCF188EAE8
:10EB200091EE60E00F94C2F1E1E0F0E01093570045
:10EB30001491812F0F940DF20F94DCF107CF8BE825
:10EB400092EE62E00F94F5F18BE492EE60E00F94A8
:10EB5000F5F10F94DCF100E010E019C0C8016F2D51
:10EB60000F947FFEFF2031F489E492EE60E00F9471
:10EB7000C2F10BC0F092C6008091C00086FFFCCFAE
:10EB80008091C00080648093C0000F5F1F4FC80158
:10EB900081519F41A0E0B0E0ABBFFC01F790BAE229
:10EBA000FB1621F0E2E000301E07C1F60F94DCF105
:10EBB0000F94DCF187E592EE60E00F94F5F10F948D
:10EBC000DCF1CC24DD2400E010E01EC0C8010F946D
:10EBD00077FEF82E882331F489E492EE60E00F94FA
:10EBE000C2F10BC08093C6008091C00086FFFCCFAD
:10EBF0008091C00080648093C000FE1419F00894D6
:10EC0000C11CD11C0F5F1F4FC80181519F41A0E063
:10EC1000B0E0ABBFFC01E790FAE2EF1621F022E092
:10EC20000030120799F60F94DCF10F94DCF182E6C4
:10EC300092EE60E00F94C2F1C60161E070E00F94C3
:10EC400034F20F94DCF10F94DCF110920202109276
:10EC50000302109204021092050278CE89E992EE26
:10EC600062E00F94F5F1279A2F9A16C02F9880E052
:10EC700090E0E0EDF7E03197F1F7019684369105E9
:10EC8000C1F72F9A80E090E0E0EDF7E03197F1F7DF
:10EC9000019684369105C1F78091C00087FFE6CFC9
:10ECA0008091C00087FFFCCF64C485EA92EE62E0E9
:10ECB0000F94F5F140910202509103026091040219
:10ECC0007091050281E020E10F9491F2809102029F
:10ECD00090910302A0910402B091050280509F4FD1
:10ECE000AF4FBF4F8093020290930302A0930402A0
:10ECF000B093050280509041A040B04008F426CE69
:10ED0000A4CF83EB92EE62E00F94F5F140910602FE
:10ED100050910702609108027091090280E020E1A1
:10ED20000F9491F28091060290910702A09108023F
:10ED3000B091090280509F4FAF4FBF4F80930602A2
:10ED400090930702A0930802B0930902FFCD80ECD4
:10ED500092EE62E00F94F5F183E792EE60E00F949B
:10ED6000F5F18FE792EE60E00F94F5F18BE892EE0B
:10ED700060E00F94F5F189E992EE60E00F94F5F10F
:10ED800085EA92EE60E00F94F5F183EB92EE60E09D
:10ED90000F94F5F180EC92EE60E00F94F5F187ECC2
:10EDA00092EE60E00F94F5F188ED92EE60E00F9442
:10EDB000F5F18FED92EE60E00F94F5F18AEE92EEB0
:10EDC00060E00F94F5F183E093EEBDCD87EC92EE19
:10EDD00062E00F94F5F181E40F947BF282E40F94EA
:10EDE0007BF283E40F947BF284E40F947BF285E45E
:10EDF0000F947BF286E40F947BF287E40F947BF20E
:10EE000088E40F947BF28AE40F947BF28BE40F94F6
:10EE10007BF28CE40F947BF299CD88ED92EE62E068
:10EE20000F94F5F1772473948824992409C48FED05
:10EE300092EE62E00F94F5F140910A0250910B02BC
:10EE400060910C0270910D0282E020E10F9491F22A
:10EE500080910A0290910B02A0910C02B0910D02D8
:10EE600080509F4FAF4FBF4F80930A0290930B0289
:10EE7000A0930C02B0930D0269CD8AEE92EE62E08F
:10EE80000F94F5F184EE90EE60E00F94F5F18FECC5
:10EE900091EE60E00F94F5F1662477244301CC5D98
:10EEA000DE4F19821882C452D140D401C301B695F5
:10EEB000A79597958795CA5DDE4F88839983AA8326
:10EEC000BB83C652D140CC5DDE4FA881B981C4520C
:10EED000D1401196CC5DDE4FB983A883C452D14096
:10EEE000CD0162E070E00F9434F2B0E2B093C6005E
:10EEF0008091C00086FFFCCF8091C0008064809329
:10EF0000C000EDE2E093C6008091C00086FFFCCF18
:10EF10008091C00080648093C000F0E2F093C6004E
:10EF20008091C00086FFFCCF8091C00080648093F8
:10EF3000C000CA5DDE4FE880F9800A811B81C6529D
:10EF4000D140BB27A12F902F8F2D0F940DF2CA5DBA
:10EF5000DE4F8881C652D1400F940DF2B0E2FB2EF5
:10EF6000F092C6008091C00086FFFCCF8091C00067
:10EF700080648093C0000DE30093C6008091C000C0
:10EF800086FFFCCF8091C00080648093C00010E2B7
:10EF90001093C6008091C00086FFFCCF8091C00016
:10EFA00080648093C0008BBEF3012791C65DDE4F65
:10EFB0002883CA52D140A22EBB24CC24DD2408943D
:10EFC000611C711C811C911C8BBEF3018791282E42
:10EFD0003324442455240894611C711C811C911C09
:10EFE0008BBEF3013791C55DDE4F3883CB52D140E4
:10EFF0000894611C711C811C911C8BBEF30147910C
:10F00000C45DDE4F4883CC52D140ADEFEA2EAFEF66
:10F01000FA2EAFEF0A2FAFEF1A2F6E0C7F1C801E57
:10F02000911E142D032DF22CEE24EA0CFB1C0C1D5A
:10F030001D1D0F940DF220E22093C6008091C000A8
:10F0400086FFFCCF8091C00080648093C000C65DC5
:10F05000DE4F8881CA52D1400F940DF230E23093D6
:10F06000C6008091C00086FFFCCF8091C000806404
:10F070008093C000C45DDE4F8881CC52D1400F9494
:10F080000DF240E24093C6008091C00086FFFCCFA5
:10F090008091C00080648093C000C55DDE4F888190
:10F0A000CB52D1400F940DF250E25093C6008091A4
:10F0B000C00086FFFCCF8091C00080648093C000B8
:10F0C0008FEFE8168FEFF80680E0080780E018075A
:10F0D00031F484E092EE60E00F94C2F1DFC0D80119
:10F0E000C7018070907CA070B0708050904CA040A0
:10F0F000B040D1F52FEF3FE340E050E0E222F322B1
:10F1000004231523CA5DDE4FA880B980CA80DB8046
:10F11000C652D140AE0CBF1CC01ED11EAA0CBB1CD7
:10F12000CC1CDD1C8EE092EE60E00F94C2F1BB2798
:10F13000A12F902F8F2D0F940DF28E2D0F940DF285
:10F1400030E23093C6008091C00086FFFCCF8091F2
:10F15000C00080648093C0004EE34093C60080915D
:10F16000C00086FFFCCF87C08EE09EEFA0E0B0E03D
:10F17000E822F9220A231B239CE0E91694E9F90608
:10F1800090E0090790E0190709F088C0C45DDE4FE0
:10F19000A881CC52D140EA2EFF2400E010E0102FCD
:10F1A0000F2DFE2CEE24C55DDE4FB881CB52D14031
:10F1B000EB0EF11C011D111DD601C501817090706F
:10F1C000A070B070DC0199278827E80EF91E0A1F8D
:10F1D0001B1F20EF30E040E050E0A222B322C42207
:10F1E000D52241E1AA0CBB1CCC1CDD1C4A95D1F7F1
:10F1F000EA0CFB1C0C1D1D1D81E090E0A0E0B0E0BE
:10F20000282239224A225B2235E1220C331C441C7D
:10F21000551C3A95D1F7E20CF31C041D151D57013E
:10F220006801AA0CBB1CCC1CDD1C85E192EE60E0E1
:10F230000F94C2F1C801AA27BB270F940DF2BB2778
:10F24000A12F902F8F2D0F940DF28E2D0F940DF274
:10F2500090E29093C6008091C00086FFFCCF809121
:10F26000C00080648093C000AEE3A093C60080918C
:10F27000C00086FFFCCF8091C00080648093C000F6
:10F28000C601AA27BB270F940DF2BB27AD2D9C2DDD
:10F290008B2D0F940DF28A2D0F940DF20F94DCF14B
:10F2A000CC5DDE4FE881F981C452D140F99709F471
:10F2B0004DCBF4E0EF2EF12C012D112D6E0C7F1CA7
:10F2C000801E911EF2CD83E093EE62E00F94F5F183
:10F2D0008AE192EE60E00F94C2F18091C00087FF56
:10F2E000FCCF1091C6001F751093C6008091C0001E
:10F2F00086FFFCCF8091C00080648093C0000F9493
:10F30000DCF1812F81548A3108F036C1163409F4BA
:10F3100095C0173490F4133409F44EC0143430F40B
:10F320001134F1F0123409F01DC130C0143409F465
:10F3300059C0153409F016C16BC01A3409F4C4C0A1
:10F340001B3438F4173409F48FC0183409F00AC19B
:10F35000A1C01B3409F4D2C01C3409F003C1E8C0B9
:10F360008FEF81B90DC082B1809582B980E090E0C5
:10F37000E0EDF7E03197F1F70196883C9105C1F790
:10F380008091C00087FFEFCF12B8EFC08FEF84B934
:10F390000DC085B1809585B980E090E0E0EDF7E0A3
:10F3A0003197F1F70196883C9105C1F78091C00033
:10F3B00087FFEFCF15B8D9C08FEF87B90DC088B1DF
:10F3C000809588B980E090E0E0EDF7E03197F1F7C3
:10F3D0000196883C9105C1F78091C00087FFEFCF6F
:10F3E00018B8C3C08FEF8AB90DC08BB180958BB9A7
:10F3F00080E090E0E0EDF7E03197F1F70196883C8E
:10F400009105C1F78091C00087FFEFCF1BB8ADC059
:10F410008FEF8DB90DC08EB180958EB980E090E0F0
:10F42000E0EDF7E03197F1F70196883C9105C1F7DF
:10F430008091C00087FFEFCF1EB897C08FEF80BBD1
:10F440000DC081B3809581BB80E090E0E0EDF7E0F6
:10F450003197F1F70196883C9105C1F78091C00082
:10F4600087FFEFCF11BA81C08FEF83BB0DC084B38C
:10F47000809584BB80E090E0E0EDF7E03197F1F714
:10F480000196883C9105C1F78091C00087FFEFCFBE
:10F4900014BA6BC08FEF809301010FC080910201FD
:10F4A00080958093020180E090E0E0EDF7E03197F5
:10F4B000F1F70196883C9105C1F78091C00087FF64
:10F4C000EDCF1092020151C08FEF809304010FC065
:10F4D0008091050180958093050180E090E0E0ED4A
:10F4E000F7E03197F1F70196883C9105C1F78091DB
:10F4F000C00087FFEDCF1092050137C08FEF8093DA
:10F5000007010FC08091080180958093080180E079
:10F5100090E0E0EDF7E03197F1F70196883C910536
:10F52000C1F78091C00087FFEDCF109208011DC088
:10F530008FEF80930A010FC080910B01809580931B
:10F540000B0180E090E0E0EDF7E03197F1F70196F4
:10F55000883C9105C1F78091C00087FFEDCF1092E4
:10F560000B0103C085E292EEEEC98091C00087FFD7
:10F57000FCCF8091C600EAC988E392EEE4C98CE131
:10F5800091EEE1C988249924933011F1943028F444
:10F59000913089F09230B8F408C0953061F195301F
:10F5A000F0F0963009F048C043C02B3109F042C951
:10F5B00091E06BE13FC96227C15DDE4F2883CF52E6
:10F5C000D14092E037C9B22FA0E0622793E032C960
:10F5D000822F90E0A82BB92B622794E02BC92E3004
:10F5E00009F039C3622795E0C05DDE4F19821882A9
:10F5F000C053D1401FC9E1E0F0E0EC0FFD1FC05D3A
:10F60000DE4F08811981C053D140E00FF11F2083E4
:10F610000F5F1F4FC05DDE4F19830883C053D14079
:10F6200062270A171B0709F005C9D80196E002C92D
:10F63000261709F010C303C0973009F0FBC87724E0
:10F640009981933109F412C19431C8F4963009F4C8
:10F65000D8C0973050F4923009F406C1933009F4C1
:10F660006DC0913009F059C253C0913109F477C08F
:10F67000923108F0BBC0903109F04FC2F5C098310B
:10F6800009F487C0993150F4953109F4EFC09531F0
:10F6900008F4C6C1963109F040C2C2C19A3109F4DA
:10F6A0006CC09A3108F491C09B3109F45BC09D3164
:10F6B00009F033C29D81903359F48F81882311F46E
:10F6C0009EE11CC0813011F091E018C098E916C08D
:10F6D000892F807591F0903539F4E0E0F0E089E011
:10F6E0008093570094910AC0983539F4E3E0F0E034
:10F6F00089E080935700949101C090E01A821B82A8
:10F700008D818C831D829E831F8227E030E009C299
:10F710001A8288E08B8381E48C8386E58D8382E581
:10F720008E8389E48F8383E5888780E589878FE5E9
:10F730008A8782E38B872BE030E0F3C18A818139AD
:10F7400041F0823941F0803911F48FE005C080E04A
:10F7500003C082E001C08AE01A828B8344C0772410
:10F76000739482C08D81882311F48EE12CC0813086
:10F7700011F081E028C088E926C01A82E1E0F0E0BB
:10F7800089E08093570084918B831C8224E030E0D1
:10F79000C8C18B81803589F48C81883039F4E2E0EE
:10F7A000F0E089E08093570084910DC0E0E0F0E044
:10F7B00089E080935700849106C0E3E0F0E089E09F
:10F7C0008093570084911A82DFCF8D81836C99E0FA
:10F7D000E1E0F0E0082E90935700E89507B600FCB2
:10F7E000FDCF1A821B8223E030E09BC180EC8A832C
:10F7F000CE5CDE4F188219821A821B82C253D1401E
:10F800008EC18A8190E0A0E0B0E0582F44273327D2
:10F8100022278B8190E0A0E0B0E0DC0199278827C7
:10F82000282B392B4A2B5B2B8D8190E0A0E0B0E098
:10F83000282B392B4A2B5B2B8C8190E0A0E0B0E089
:10F84000BA2FA92F982F8827282B392B4A2B5B2BCF
:10F85000220F331F441F551FC05EDE4F288339839C
:10F860004A835B83C052D1401A8259C13A81C95C34
:10F87000DE4F3883C753D140CA5CDE4F1882C6536F
:10F88000D1408B81C82EDD24CA5CDE4F488159816E
:10F89000C653D140C42AD52A933109F082C0CE5C28
:10F8A000DE4F88819981AA81BB81C253D1408050AB
:10F8B000904CA340B04030F583E0CE5CDE4FE88052
:10F8C000F9800A811B81C253D140F70100935B008C
:10F8D00080935700E89507B600FCFDCFCE5CDE4F65
:10F8E000088119812A813B81C253D14000501F4FAA
:10F8F0002F4F3F4FCE5CDE4F088319832A833B8313
:10F90000C253D140C05EDE4F488159816A817B81FC
:10F91000C052D140DE011B9631E08C9111962C91A2
:10F9200011971296C75CDE4F2883C953D140C85C3B
:10F93000DE4F1882C853D14090E0C85CDE4FE881AA
:10F94000F981C853D1408E2B9F2B0C01FA01609393
:10F950005B0030935700E89511244E5F5F4F6F4F67
:10F960007F4F0EEFE02E0FEFF02ECE0CDF1CC114F8
:10F97000D10499F685E0C05EDE4F088119812A81A5
:10F980003B81C052D140F80120935B008093570027
:10F99000E89507B600FCFDCF81E180935700E8951C
:10F9A00035C0C05EDE4F88819981AA81BB81C0527B
:10F9B000D140B695A795979587957C018601ABE0D8
:10F9C000AA2EB12CAC0EBD1E0BC0D5016D915D01F0
:10F9D000C7010F947FFE0894E11CF11C01501040F8
:10F9E0000115110591F7A60160E070E0440F551F65
:10F9F000661F771FC05EDE4FE880F9800A811B8199
:10FA0000C052D1404E0D5F1D601F711F1A82C05E33
:10FA1000DE4F488359836A837B83C052D1407FC0C5
:10FA2000FA80C55CDE4FF882CB53D140C65CDE4F16
:10FA30001882CA53D1408B81C82EDD24C65CDE4FAC
:10FA400008811981CA53D140C02AD12A1A828981DA
:10FA5000BE016D5F7F4F843121F59601C05EDE4FA0
:10FA6000E880F9800A811B81C052D1400BBFF701A9
:10FA700087919691DB018C9311969C936E5F7F4FDB
:10FA8000D801C7010296A11DB11DC05EDE4F88835B
:10FA90009983AA83BB83C052D14022503040F1F6F3
:10FAA00036C0C05EDE4F288139814A815B81C052F9
:10FAB000D1400894C108D108760100E010E0089414
:10FAC000C11CD11C0894E11CF11C011D111DE20E8A
:10FAD000F31E041F151F21BDBB27A52F942F832FB5
:10FAE00082BD2F5F3F4F4F4F5F4FF89A80B5DB01CC
:10FAF0008D93BD012E153F054007510761F7C05E8C
:10FB0000DE4F288339834A835B83C052D1409601FC
:10FB10002D5F3F4FFB01108204C080EC8A8322E0FE
:10FB200030E08BE18093C6008091C00086FFFCCF5F
:10FB30008091C00080648093C000C15DDE4FF88179
:10FB4000CF52D140F093C6008091C00086FFFCCF19
:10FB50008091C00080648093C000432F3093C60022
:10FB60008091C00086FFFCCF8091C00080648093AC
:10FB7000C000922F2093C6008091C00086FFFCCF6A
:10FB80008091C00080648093C0008EE08093C600A6
:10FB90008091C00086FFFCCF8091C000806480937C
:10FBA000C00065E1C15DDE4FE880CF52D1406E25D7
:10FBB00069276427FE01319610C090819093C6009A
:10FBC0008091C00086FFFCCF31968091C000806498
:10FBD0008093C0006927215030402115310569F715
:10FBE0006093C6008091C00086FFFCCF8091C0006A
:10FBF00080648093C00085B1805885B9772081F4F6
:10FC0000C15DDE4F0881CF52D1400F5FC15DDE4F35
:10FC10000883CF52D14090E0A0E0B0E00D941AF4F8
:10FC200027982F9880E090E020ED37E0F901319798
:10FC3000F1F7019684369105C9F700008091C00064
:10FC40008D7F8093C00081E180935700E895EE2777
:10FC5000FF270994FFCF90E00D941AF497FB092E2B
:10FC600007260AD077FD04D02ED006D000201AF443
:10FC7000709561957F4F0895F6F7909581959F4F08
:10FC80000895A1E21A2EAA1BBB1BFD010DC0AA1FDD
:10FC9000BB1FEE1FFF1FA217B307E407F50720F0F5
:10FCA000A21BB30BE40BF50B661F771F881F991F70
:10FCB0001A9469F760957095809590959B01AC01B9
:10FCC000BD01CF010895AA1BBB1B51E107C0AA1FAC
:10FCD000BB1FA617B70710F0A61BB70B881F991FED
:10FCE0005A95A9F780959095BC01CD010895F99991
:10FCF000FECF92BD81BDF89A992780B50895262F31
:10FD0000F999FECF1FBA92BD81BD20BD0FB6F89400
:0EFD1000FA9AF99A0FBE01960895F894FFCF63
:040000033000E000E9
:00000001FF