:1000000019C1000047C1000045C1000043C1000004
:1000100041C100003FC100003DC100003BC10000E4
:1000200039C1000037C1000035C1000033C10000F4
:1000300031C100002FC100002DC10000F3C4000039
:1000400029C1000027C1000025C1000023C1000014
:1000500021C100001FC100001DC1000099C40000A3
:1000600019C1000029C30000FEC2000013C1000036
:1000700011C100000FC100000DC100000BC1000044
:1000800009C1000007C1000005C1000003C1000054
:10009000C1C2000096C20000FDC00000FBC000000D
:1000A000F9C00000F7C00000F5C00000F3C0000078
:1000B000F1C00000EFC00000EDC00000EBC0000088
:1000C000E9C00000E7C00000E5C0000051C2000028
:1000D00026C20000DFC00000DDC00000DBC0000061
:1000E000D9C00000B403B703A603AA03AE03EE030E
:1000F000BB03BF03C503C903CD03D303D703DB038E
:10010000EE03E103E503E90328042D0432043C0473
:100110004604BF045004580460046A0474047E0456
:100120008D049704BF04A104AB04B50400000A0BBE
:1001300002090C0D0E080703040100000000000076
:1001400000000000000000000000000000000000AF
:10015000000000000000000012111000000000006C
:10016000000000000000000000000000000000008F
:10017000000000002200250028002B002E00310086
:10018000340002010000050108010B0100002100FC
:10019000240027002A002D00300033000101000058
:1001A000040107010A0105050505070508080808F7
:1001B000020202020A0A08080404040401010101FF
:1001C00001010101030303030303030304070707FA
:1001D0000C0C0C0C0C0C0C0C02020202060606069F
:1001E000060606060B0B0B0B0B0B0B0B010210206C
:1001F000200808102040102040800201020108045D
:1002000002010102040810204080804020100804F0
:100210000201800402018040201008040201080449
:10022000020101020408102040800102040810208D
:100230004080290B11241FBECFEFD1E2DEBFCDBF1E
:1002400000E00CBF24E0A6E5B2E001C01D92A63A92
:10025000B207E1F712E0A0E0B2E0E6E2F8E100E088
:100260000BBF02C007900D92A635B107D9F711E078
:10027000CAE1D1E000E006C021970109802FFE010C
:100280000E94050CC931D10780E00807A9F7A1D564
:100290000C94110CB5CE089580E090E00895FC0117
:1002A000538D448D252F30E0842F90E0821B930BDB
:1002B000541710F0CF96089501970895FC01918D81
:1002C000828D981761F0828DDF01A80FB11D5D96B8
:1002D0008C91928D9F5F9F73928F90E008958FEF26
:1002E0009FEF0895FC01918D828D981731F0828DDA
:1002F000E80FF11D858D90E008958FEF9FEF089531
:10030000FC01918D228D892F90E0805C9F4F821B94
:1003100091098F739927089589E792E0F1DF21E031
:10032000892B09F420E0822F089586E193E0E8DF2D
:1003300021E0892B09F420E0822F089583EB93E0DC
:10034000DFDF21E0892B09F420E0822F0895FC01F2
:10035000848DDF01A80FB11DA35ABF4F2C91848D4E
:1003600090E001968F739927848FA689B7892C9383
:10037000A089B1898C91837080648C93938D848DD6
:10038000981306C00288F389E02D80818F7D8083D9
:100390000895EF92FF920F931F93CF93DF93EC0199
:1003A00081E0888F9B8D8C8D981305C0E889F98931
:1003B000808185FD25C0F62E0B8D10E00F5F1F4F4D
:1003C0000F731127E02E8C8DE8120BC00FB607FCBF
:1003D000FACFE889F989808185FFF5CFCE01B7DFB3
:1003E000F2CF8B8DFE01E80FF11DE35AFF4FF08233
:1003F0009FB7F8940B8FEA89FB89808180620AC0DD
:100400009FB7F894EE89FF896083E889F989808134
:100410008370806480839FBF81E090E0DF91CF9103
:100420001F910F91FF90EF900895CF93DF93EC0110
:10043000888D8823C1F0EA89FB89808185FD05C00C
:10044000A889B9898C9186FD0EC00FB607FCF5CF3F
:10045000808185FFF2CFA889B9898C9185FFEDCF86
:10046000CE0175DFE8CFDF91CF91089580E090E075
:10047000892B19F063DF81111BC080E090E0892B8C
:1004800019F053DF811117C080E090E0892B19F03B
:1004900043DF811113C080E090E0892BA1F080E060
:1004A00090E0892B81F00E94000081110AC008951C
:1004B0000E940000E2CF0E940000E6CF0E940000F0
:1004C000EACF0C94000008952FB7F8946091600271
:1004D0007091610280916202909163022FBF089532
:1004E00062E172E086E193E0BDD38091A304E0D3A2
:1004F00068E172E086E193E0B5D38091A204833095
:1005000019F480E292E009C0843019F485E292E0A7
:1005100004C0853019F48AE292E0B9C308951F92AD
:100520000F920FB60F9211240BB60F922F933F9399
:100530004F935F936F937F938F939F93AF93BF93EB
:10054000EF93FF9389E792E002DFFF91EF91BF9174
:10055000AF919F918F917F916F915F914F913F915B
:100560002F910F900BBE0F900FBE0F901F901895FC
:100570001F920F920FB60F9211240BB60F922F936A
:100580003F934F935F936F937F938F939F93AF931B
:10059000BF93EF93FF9389E792E04BD3FF91EF91E5
:1005A000BF91AF919F918F917F916F915F914F918B
:1005B0003F912F910F900BBE0F900FBE0F901F9089
:1005C00018951F920F920FB60F9211240BB60F922F
:1005D0002F933F934F935F936F937F938F939F934B
:1005E000AF93BF93EF93FF9386E193E0B0DEFF916B
:1005F000EF91BF91AF919F918F917F916F915F919B
:100600004F913F912F910F900BBE0F900FBE0F9007
:100610001F9018951F920F920FB60F9211240BB6D0
:100620000F922F933F934F935F936F937F938F938B
:100630009F93AF93BF93EF93FF9386E193E0F9D23B
:10064000FF91EF91BF91AF919F918F917F916F91AA
:100650005F914F913F912F910F900BBE0F900FBE66
:100660000F901F9018951F920F920FB60F921124A2
:100670000BB60F922F933F934F935F936F937F939C
:100680008F939F93AF93BF93EF93FF9383EB93E08D
:100690005EDEFF91EF91BF91AF919F918F917F911E
:1006A0006F915F914F913F912F910F900BBE0F90E3
:1006B0000FBE0F901F9018951F920F920FB60F92BA
:1006C00011240BB60F922F933F934F935F936F9329
:1006D0007F938F939F93AF93BF93EF93FF9383EB9E
:1006E00093E0A7D2FF91EF91BF91AF919F918F912E
:1006F0007F916F915F914F913F912F910F900BBE22
:100700000F900FBE0F901F901895362F90E0FC01B0
:10071000E45DFE4F4491FC01E451FE4F2491FC0145
:10072000EA55FE4F9491992309F46CC0442309F4CF
:1007300055C050E0FA013197E231F10508F04EC0A2
:100740008827EE58FF4F8F4F0C94050C8091800046
:100750008F7707C0809180008F7D03C080918000DB
:10076000877F809380003AC084B58F7702C084B5BC
:100770008F7D84BD33C08091B0008F7703C080919E
:10078000B0008F7D8093B00029C0809190008F775A
:1007900007C0809190008F7D03C080919000877F7B
:1007A000809390001BC08091A0008F7707C080913C
:1007B000A0008F7D03C08091A000877F8093A00060
:1007C0000DC0809120018F7707C0809120018F7D1F
:1007D00003C080912001877F80932001E92FF0E002
:1007E000EE0FFF1FEE58FE4FA591B4919FB7F894FE
:1007F000311104C08C912095282302C0EC912E2B3E
:100800002C939FBF08951F93CF93DF93182FEB0175
:10081000AAD1209711F460E004C0CF3FD10531F494
:1008200061E0812FDF91CF911F916FCFE12FF0E039
:10083000E45DFE4FE4918E2F90E0FC013197E231B0
:10084000F10508F09CC08827EC57FF4F8F4FDDC79C
:1008500084B5806884BDC7BD97C084B5806284BDFF
:10086000C8BD92C080918000806880938000D09342
:100870008900C093880088C0809180008062809346
:100880008000D0938B00C0938A007EC0809180004E
:10089000886080938000D0938D00C0938C0074C0DA
:1008A0008091B00080688093B000C093B3006CC0AA
:1008B0008091B00080628093B000C093B40064C0A7
:1008C00080919000806880939000D0939900C093AD
:1008D00098005AC080919000806280939000D093DD
:1008E0009B00C0939A0050C08091900088608093D4
:1008F0009000D0939D00C0939C0046C08091A000C2
:1009000080688093A0008091A0008F7B8093A000DE
:10091000D093A900C093A80037C08091A000806246
:100920008093A000D093AB00C093AA002DC080910B
:10093000A00088608093A000D093AD00C093AC006D
:1009400023C080912001806880932001D0932901E9
:10095000C093280119C080912001806280932001FA
:10096000D0932B01C0932A010FC080912001886091
:1009700080932001D0932D01C0932C0105C0C03875
:10098000D1050CF04DCF47CFDF91CF911F91089546
:100990001F920F920FB60F9211242F933F938F93B4
:1009A0009F93AF93BF938091600290916102A09159
:1009B0006202B091630230915F0223E0230F2D3772
:1009C00020F40196A11DB11D05C026E8230F029653
:1009D000A11DB11D20935F0280936002909361027C
:1009E000A0936202B093630280915B0290915C02DB
:1009F000A0915D02B0915E020196A11DB11D809390
:100A00005B0290935C02A0935D02B0935E02BF9183
:100A1000AF919F918F913F912F910F900FBE0F90AB
:100A20001F9018951F920F920FB60F9211240BB6BC
:100A30000F922F933F934F935F936F937F938F9377
:100A40009F93AF93BF93EF93FF9380916402909134
:100A500065028093B2008091570290915802A09154
:100A60005902B0915A020196A11DB11D80935702FF
:100A700090935802A0935902B0935A028091570262
:100A800090915802A0915902B0915A024091680287
:100A90005091690260916A0270916B028417950708
:100AA000A607B70710F18091560281111EC081E0A0
:100AB000809356028091570290915802A09159025A
:100AC000B0915A02841B950BA60BB70B809357026B
:100AD00090935802A0935902B0935A02E091660293
:100AE000F0916702199510925602FF91EF91BF9114
:100AF000AF919F918F917F916F915F914F913F91B6
:100B00002F910F900BBE0F900FBE0F901F90189556
:100B1000CF92DF92EF92FF920F931F93CF93DF93C9
:100B20006C017A018B01C0E0D0E0CE15DF0581F0C9
:100B3000D8016D918D01D601ED91FC910190F0816C
:100B4000E02DC6011995892B11F02196EECF7E017B
:100B5000C701DF91CF911F910F91FF90EF90DF9030
:100B6000CF9008955AD690E0FC01E451FE4F2491B5
:100B7000FC01EA55FE4F8491882399F090E0880F9C
:100B8000991FFC01E457FE4FA591B491FC01EE586A
:100B9000FE4F859194918FB7F894EC91E22BEC93F2
:100BA0008FBF0895FC01A089B18982E08C93A48550
:100BB000B5851C92A685B7858FEC8C93108EA48981
:100BC000B58986E08C93A289B3898C9180618C93DE
:100BD000A289B3898C9188608C93A289B3898C9106
:100BE00080688C930288F389E02D80818F7D8083DB
:100BF0000895CF93DF93C8E9D4E060E08C8185DD70
:100C000061E08D8182DD61E08E817FDD60E08F813A
:100C1000DF91CF917ACDCF93DF93C8E9D4E060E044
:100C200070E08A81F0DD60E070E08B81DF91CF9130
:100C3000EACDFC01A089B1898C91A689B78982FD92
:100C40000FC09C91818D8F5F8F73228D821749F029
:100C5000218DDF01A20FB11D5D969C93818F0895B8
:100C60008C9108956115710579F0FB0101900020C8
:100C7000E9F73197AF01461B570BDC01ED91FC9171
:100C80000280F381E02D199480E090E00895CF93E5
:100C9000DF93BC0186E193E0E5DFEC016DE372E0F8
:100CA00086E193E0DFDF8C0F9D1FDF91CF910895E8
:100CB000CF93DF93682F86E193E06BDBEC016DE36C
:100CC00072E086E193E0CEDF8C0F9D1FDF91CF9124
:100CD00008958F929F92AF92BF92EF92FF920F93DF
:100CE0001F93CF93DF93CDB7DEB7A1970FB6F894DC
:100CF000DEBF0FBECDBF7C01FA01CB0119A22230AD
:100D000008F42AE08E010F5D1F4F822E912CA12C3A
:100D1000B12CBF01A501940156D5F901CA010150BA
:100D200011096A3014F4605D01C0695CD8016C93EC
:100D3000232B242B252B69F7B801C70193DFA1963C
:100D40000FB6F894DEBF0FBECDBFDF91CF911F91DC
:100D50000F91FF90EF90BF90AF909F908F9008956C
:100D6000CF93DF93C8E9D4E0488150E060E070E0C1
:100D70002AE086E193E0ADDF6BE472E086E193E088
:100D800071DF498150E060E070E02AE086E193E0A5
:100D9000A0DF6DE372E086E193E0DF91CF9162CF57
:100DA000CF93DF93C8E9D4E08A876DE472E086E1EF
:100DB00093E058DF4A8550E060E070E02AE086E189
:100DC00093E087DF6DE372E086E193E0DF91CF91FE
:100DD00049CF789484B5826084BD84B5816084BD38
:100DE00085B5826085BD85B5816085BD80916E00C9
:100DF000816080936E0010928100809181008260FA
:100E00008093810080918100816080938100809136
:100E100080008160809380008091B1008460809325
:100E2000B1008091B00081608093B000809191000A
:100E30008260809391008091910081608093910005
:100E4000809190008160809390008091A1008260E9
:100E50008093A1008091A10081608093A100809186
:100E6000A00081608093A000809121018260809326
:100E700021018091210181608093210180912001D5
:100E800081608093200180917A00846080937A0051
:100E900080917A00826080937A0080917A008160EC
:100EA00080937A0080917A00806880937A00109213
:100EB000C10010929404109295041092960410921E
:100EC00097041092520410925304109254041092FA
:100ED0005504FADA6B017C014B015C0128EB820EB0
:100EE0002BE0921EA11CB11CEFDA6C157D058E055E
:100EF0009F0528F086169706A806B906A8F783EB83
:100F000093E090939304809392044CDEDDDA609337
:100F100052047093530480935404909355046EE2EA
:100F200072E080919204909193049CDECDDA6B0183
:100F30007C014B015C018AE0880E911CA11CB11C54
:100F4000C3DA6C157D058E059F0528F08616970679
:100F5000A806B906A8F781E08093660483EB93E0C6
:100F600021DE86E193E01EDE89E792E01BDE8EEE55
:100F700092E0A0E0B0E08093680290936902A093B1
:100F80006A02B0936B0280E792E0909367028093CD
:100F90006602809170008E7F809370008091B00017
:100FA0008C7F8093B0008091B100877F8093B100E7
:100FB0008091B6008F7D8093B600809170008D7F08
:100FC000809370008091B10084608093B100809123
:100FD000B1008C7F8093B10086E090E09093650231
:100FE000809364028DE0BFDD8CE0BDDD8BE0BBDD76
:100FF00060E08DE08ADB60E08CE087DB60E08BE026
:1010000084DB109274021092730210926E0210929E
:101010006D02CFEFD0E08DE2282E332433949BE293
:10102000492E5524539426E2622E7724739434E299
:10103000832E992493944FE1E42EFF24F3945DE1F1
:10104000C52EDD24D39462E4A62EBB24B3948091F4
:101050007302909174028036910509F40BC28A37AD
:10106000910509F41FC2892B59F580E28093A304EE
:101070008093A40486E193E043D9892B29F086E18B
:1010800093E01CD98093A30489E792E039D9892B96
:1010900069F089E792E012D98093A40460E472E0D9
:1010A00086E193E0DFDD8091A40402DE80E690E03B
:1010B00002C08AE790E0909374028093730204C0A8
:1010C000109274021092730280916D0290916E02E0
:1010D0008B3221E0920709F4F0C0B8F48F3121E09F
:1010E000920709F46DC038F4009741F18D319140B9
:1010F00009F43FC0B8C1843221E0920709F48BC0E3
:101100008632914009F4AEC0AEC1843321E092072B
:1011100009F44EC150F48D3221E0920709F4F4C075
:101120008233914009F41BC19EC18A3321E09207AA
:1011300009F46FC18234914009F095C18091A504F2
:10114000882309F47FC110926C0260916C026F3F9A
:1011500051F170E08DE057DBB7D960936F02709367
:1011600070028093710290937202D0926E02C092CC
:101170006D02AAD900916F02109170022091710244
:1011800030917202DC01CB01801B910BA20BB30BDF
:101190000597A105B10508F46AC180916C028F5FC3
:1011A00080936C02D2CF90D960936F0270937002DB
:1011B0008093710290937202F0926E02E0926D023F
:1011C00083D900916F0210917002209171023091C9
:1011D0007202601771078207930709F448C11092E1
:1011E0006C0200916C020F3F81F110E0BE01601BA8
:1011F000710B8DE008DBB8018CE005DB65D96093ED
:101200006F027093700280937102909372029092B9
:101210006E0280926D0258D900916F021091700297
:101220002091710230917202DC01CB01801B910B85
:10123000A20BB30B0597A105B10508F418C1809165
:101240006C028F5F80936C02CCCF3ED960936F02AB
:1012500070937002809371029093720270926E028A
:1012600060926D0231D900916F021091700220914D
:10127000710230917202601771078207930709F4B7
:10128000F6C010926C0200916C020F3F81F110E0E9
:10129000BE01601B710B8CE0B6DAB8018BE0B3DAEB
:1012A00013D960936F0270937002809371029093D0
:1012B000720250926E0240926D0206D900916F0246
:1012C000109170022091710230917202DC01CB0109
:1012D000801B910BA20BB30B0597A105B10508F478
:1012E000C6C080916C028F5F80936C02CCCFECD82B
:1012F00060936F02709370028093710290937202F8
:1013000030926E0220926D02DFD800916F02109130
:10131000700220917102309172026017710782078A
:10132000930709F4A4C010926C0200916C020F3F65
:1013300081F110E0B8018CE066DAB8018DE063DA83
:10134000C3D860936F027093700280937102909380
:10135000720282E391E090936E0280936D02B4D8A2
:1013600000916F021091700220917102309172020F
:10137000DC01CB01801B910BA20BB30B0597A105E0
:10138000B10508F474C080916C028F5F80936C0289
:10139000CCCF9AD860936F027093700280937102E1
:1013A0009093720284E391E090936E0280936D02B9
:1013B0008BD800916F0210917002209171023091D0
:1013C0007202601771078207930709F450C01092E8
:1013D0006C0280916C028F3F09F4B0CE8E01081B25
:1013E0001109B8018CE00FDAB8018DE00CDAB80110
:1013F0008BE009DA69D860936F0270937002809372
:101400007102909372028AE391E090936E0280934E
:101410006D025AD800916F021091700220917102F2
:1014200030917202DC01CB01801B910BA20BB30B3C
:101430000597A105B105D8F080916C028F5F80936C
:101440006C02C7CF60E070E08DE0DDD960E070E055
:101450008CE0D9D960E070E08BE0D5D9B0926E0213
:10146000A0926D0204C010926E0210926D020E9452
:101470003602EDCD8091A304803209F4F6CD81329D
:1014800009F4C9DB8091A304893611F484E003C018
:101490008D3619F483E084DCE8CD813709F009CE7C
:1014A00085E0F9CF8091A204853091F486E193E044
:1014B0000E948001892B09F4D8CD86E193E00E9437
:1014C0005E018093A3048093990480939804E2CFF3
:1014D000833009F0CACD8091A304803209F0E8DBA3
:1014E0008091A3048D3409F496C01CF5813409F46D
:1014F0006BC054F48B3209F4A0C08D3209F483C060
:10150000833209F0B2CDA3C08B3409F48DC074F5D9
:10151000843409F0AACD61E080919C04F6D860E0A3
:1015200080919D04F2D861E080919E04EED860E045
:1015300058C0873581F16CF4803509F483C0833558
:1015400009F43AC08F3409F090CD80919904865FF8
:1015500071C0843609F455C024F4813609F451C0B1
:1015600084CD833779F1873769F17FCD8091A504E8
:10157000882341F060E070E08091A00444D910928B
:10158000A50473CD61E070E08091A0043CD981E0B6
:101590008093A5046ACD2DDB6091990470E0809161
:1015A0009A0431D96091980470E080919B042BD902
:1015B00087E492E06CDB59CD61E080919C04A5D872
:1015C00060E007C028DB51CD60E080919C049DD88D
:1015D00061E080919D0499D860E080919E0495D847
:1015E00061E080919F0491D86091990470E08091AE
:1015F0009A0409D96091980470E080919B0403D902
:1016000034CDF7DAF1CF809199048A50833308F40E
:1016100082E380939904809198048A50809398047F
:101620008333A8F482E311C0809199048A508333F4
:1016300008F482E3809399040AC080919904865F3C
:101640008093990480919804865F8093980488DB46
:101650000CCDCF93DF93E9E7F2E01382128248EEDC
:1016600053E060E070E0448355836683778384E0D1
:1016700092E09183808325ED30E03587248724ED47
:1016800030E03787268720ED30E0318B208B21ED4D
:1016900030E0338B228B22ED30E0358B248B26ED2E
:1016A00030E0378B268B118E128E138E148EE6E16E
:1016B000F3E0138212824483558366837783918398
:1016C00080832DEC30E0358724872CEC30E03787A1
:1016D000268728EC30E0318B208B29EC30E0338BEF
:1016E000228B2AEC30E0358B248B2EEC30E0378BCC
:1016F000268B118E128E138E148EE3EBF3E0138281
:10170000128244835583668377839183808385EC3B
:1017100090E09587848784EC90E09787868780ECBB
:1017200090E0918B808B81EC90E0938B828B82ECAC
:1017300090E0958B848B86EC90E0978B868B118E56
:10174000128E138E148EE0E5F4E016821782108656
:101750001186128613861486158616861786108AB9
:10176000118A128A138A148A158AC8E9D4E081E0A2
:101770008D8784E68883898384E08A8785E08A83ED
:1017800086E08B838EE28C8380E38D8382E38E837D
:1017900084E38F8383E0888780E28B878C8761E096
:1017A00070E083E030D88A81DED98B81DCD98C81EE
:1017B000DAD98D81D8D98E81D6D98F81D4D988852F
:1017C000DF91CF91D0C9A1E21A2EAA1BBB1BFD014C
:1017D0000DC0AA1FBB1FEE1FFF1FA217B307E40710
:1017E000F50720F0A21BB30BE40BF50B661F771F68
:1017F000881F991F1A9469F7609570958095909548
:101800009B01AC01BD01CF010895EE0FFF1F881FA2
:101810008BBF0790F691E02D199481E090E0F89449
:0618200000C0F894FFCFA8
:1018260000000000C90188054F01150280015E0114
:1018360072016368203D20006D6F6465203D2000C5
:101846004D4F56450046494E440053455400564DAB
:101856004450565F317C315F564D4450560D0A0058
:10186600636832203D2000474F31005F004D6F64B2
:0618760065203D2000008A
:020000023000CC
:10E000000D9489F10D94B2F10D94B2F10D94B2F129
:10E010000D94B2F10D94B2F10D94B2F10D94B2F1F0
:10E020000D94B2F10D94B2F10D94B2F10D94B2F1E0
:10E030000D94B2F10D94B2F10D94B2F10D94B2F1D0
:10E040000D94B2F10D94B2F10D94B2F10D94B2F1C0
:10E050000D94B2F10D94B2F10D94B2F10D94B2F1B0
:10E060000D94B2F10D94B2F10D94B2F10D94B2F1A0
:10E070000D94B2F10D94B2F10D94B2F10D94B2F190
:10E080000D94B2F10D94B2F10D94B2F10D94B2F180
:10E090000D94B2F10D94B2F10D94B2F10D94B2F170
:10E0A0000D94B2F10D94B2F10D94B2F10D94B2F160
:10E0B0000D94B2F10D94B2F10D94B2F10D94B2F150
:10E0C0000D94B2F10D94B2F10D94B2F10D94B2F140
:10E0D0000D94B2F10D94B2F10D94B2F10D94B2F130
:10E0E0000D94B2F141546D656761323536300041AF
:10E0F000726475696E6F206578706C6F72657220DE
:10E1000073746B3530305632206279204D4C530099
:10E11000426F6F746C6F616465723E004875683F52
:10E1200000436F6D70696C6564206F6E203D200048
:10E130004350552054797065202020203D20005FF9
:10E140005F4156525F415243485F5F3D2000415658
:10E1500052204C696243205665723D20004743437C
:10E160002056657273696F6E203D20004350552024
:10E1700049442020202020203D20004C6F7720663D
:10E18000757365202020203D20004869676820665F
:10E190007573652020203D200045787420667573D6
:10E1A00065202020203D20004C6F636B2066757336
:10E1B000652020203D20004D617220203720323024
:10E1C000313300312E362E3800342E332E350056A2
:10E1D00023202020414444522020206F7020636F70
:10E1E00064652020202020696E73747275637469E1
:10E1F0006F6E2061646472202020496E74657272B3
:10E20000757074006E6F20766563746F7200726A49
:10E210006D702020006A6D70200057686174207056
:10E220006F72743A00506F7274206E6F7420737541
:10E2300070706F72746564004D7573742062652030
:10E2400061206C6574746572002000577269747483
:10E25000696E672045450052656164696E672045B7
:10E26000450045452065727220636E743D00504F35
:10E27000525400303D5A65726F2061646472003FF1
:10E280003D43505520737461747300403D454550C3
:10E29000524F4D207465737400423D426C696E6B41
:10E2A000204C454400453D44756D70204545505215
:10E2B0004F4D00463D44756D7020464C415348001B
:10E2C000483D48656C70004C3D4C69737420492F83
:10E2D0004F20506F72747300513D51756974005234
:10E2E0003D44756D702052414D00563D73686F7707
:10E2F00020696E7465727275707420566563746FF0
:10E30000727300593D506F727420626C696E6B00BD
:10E310002A0011241FBECFEFD1E2DEBFCDBF01E046
:10E320000CBF12E0A0E0B2E0EEE1FDEF03E00BBFB6
:10E3300002C007900D92A030B107D9F712E0A0E01B
:10E34000B2E001C01D92AE30B107E1F70F9460F367
:10E350000D948DFE01E20EBF0FEF0DBF11241FBE05
:10E360000D9460F30D9400F020E030E040ED57E0B4
:10E3700005C0FA013197F1F72F5F3F4F2817390792
:10E38000C0F308959C01260F311DC901A0E0B0E043
:10E390002F5F3F4FABBFFC018791882361F08093D3
:10E3A000C6008091C00086FFFCCF8091C0008064D1
:10E3B0008093C000EACF08958DE08093C6008091DD
:10E3C000C00086FFFCCF8091C00080648093C000B5
:10E3D0008AE08093C6008091C00086FFFCCF8091C8
:10E3E000C00080648093C00008950F94C2F10F9420
:10E3F000DCF10895FC019081992359F09093C600B7
:10E400008091C00086FFFCCF8091C0008064809323
:10E41000C0003196992379F70895282F982F929567
:10E420009F70892F805D8A3308F0895F8093C600D2
:10E430008091C00086FFFCCF8091C00080648093F3
:10E44000C000822F8F70982F905D9A3308F0995FEB
:10E450009093C6008091C00086FFFCCF8091C000E1
:10E4600080648093C00008959C01FB01853691056E
:10E470001CF46330710594F0C90164E670E00F94F8
:10E480002EFE605D7F4F6093C6008091C00086FFC6
:10E49000FCCF8091C00080648093C0002B30310598
:10E4A00014F43297B4F0C90164E670E00F942EFEC4
:10E4B0006AE070E00F942EFE605D7F4F6093C600AF
:10E4C0008091C00086FFFCCF8091C0008064809363
:10E4D000C000C9016AE070E00F942EFEC0968093E0
:10E4E000C6008091C00086FFFCCF8091C000806490
:10E4F0008093C00008951F93182F8EE692EE60E07F
:10E500000F94C2F11093C6008091C00086FFFCCF2B
:10E510008091C00080648093C0000F94DCF11F9153
:10E5200008952F923F924F925F926F927F928F92B7
:10E530009F92AF92BF92CF92DF92EF92FF920F9392
:10E540001F93DF93CF93CDB7DEB762970FB6F894E2
:10E55000DEBF0FBECDBF382E622ECA01DB015C01CB
:10E560006D01772420E2222E2E010894411C511CBB
:10E570008BC081E0A81680E0B80681E0C80680E084
:10E58000D80628F0C601AA27BB270F940DF2BB2797
:10E59000AD2D9C2D8B2D0F940DF28A2D0F940DF225
:10E5A0002092C6008091C00086FFFCCF8091C00001
:10E5B00080648093C0009DE29093C6008091C0006B
:10E5C00086FFFCCF8091C00080648093C0002092C1
:10E5D000C6008091C00086FFFCCF8091C00080649F
:10E5E0008093C00019828601750188249924A1E0D6
:10E5F0003A1651F03A1620F0B2E03B1661F409C029
:10E600000BBFF701779007C0C7010F9477FE782EF4
:10E6100002C0F7017080872D0F940DF22092C60082
:10E620008091C00086FFFCCF8091C0008064809301
:10E63000C000872D8052F401EF70F0708F3520F408
:10E64000E40DF51D708204C0E40DF51D8EE280839B
:10E650000894E11CF11C011D111D0894811C911CE2
:10E6600090E18916910409F0C2CF80E190E0A0E02A
:10E67000B0E0A80EB91ECA1EDB1E198AC2010F9493
:10E68000FAF10F94DCF16A94662009F072CF629679
:10E690000FB6F894DEBF0FBECDBFCF91DF911F91B3
:10E6A0000F91FF90EF90DF90CF90BF90AF909F9031
:10E6B0008F907F906F905F904F903F902F90089534
:10E6C0002F923F924F925F926F927F928F929F9282
:10E6D000AF92BF92CF92DF92EF92FF920F931F9370
:10E6E000DF93CF93CDB7DEB7CD53D1400FB6F894BB
:10E6F000DEBF0FBECDBF01E20EBF0FEF0DBF94B75F
:10E70000F894A89514BE80916000886180936000A1
:10E7100010926000789493FF05C0E0910002F091A0
:10E7200001021995279A2F9A8091C00082608093E8
:10E73000C00080E18093C40088E18093C1000000A4
:10E74000EE24FF24870144E0A42EB12CCC24DD2448
:10E7500024C0C5010197F1F70894E11CF11C011DCB
:10E76000111D21E2E2162EE4F20620E0020720E06D
:10E77000120718F031E0C32ED12CC801B70127ECE5
:10E780003BE140E050E00F9441FE611571058105C9
:10E79000910519F485B1805885B98091C00087FD35
:10E7A00003C0C114D104A9F2A6014F5F5F4FC25E3E
:10E7B000DE4F59834883CE51D140C25EDE4F8881FF
:10E7C0009981CE51D140019711F00D9410FEC05D9A
:10E7D000DE4F19821882C053D14060E0C15DDE4F28
:10E7E0001882CF52D14088249924C35DDE4F19820C
:10E7F0001882CD52D140C05EDE4F188219821A8233
:10E800001B82C052D140CE5CDE4F188219821A8220
:10E810001B82C253D140EE24FF2487010BBFF701B6
:10E8200007911691C45CDE4F19830883CC53D14005
:10E830000D940BFEC25EDE4F28813981CE51D1404E
:10E840002130310509F52091C600C25EDE4F1982E4
:10E850001882CE51D14022C02F5F3F4F4F4F5F4FA4
:10E86000213082E138078AE7480780E0580780F0C6
:10E87000C45CDE4FE881F981CC53D140EF5FFF4F9C
:10E8800019F0EE27FF27099420E030E040E050E047
:10E890008091C00087FFE0CF2091C600C35DDE4FAE
:10E8A00048815981CD52D1404F5F5F4FC35DDE4FEC
:10E8B00059834883CD52D140213209F063C64A3092
:10E8C000510508F05FC60894811C911C53E0851621
:10E8D000910409F059C600E010E018C081E280936D
:10E8E000C6008091C00086FFFCCF8091C00080648C
:10E8F0008093C0002F5F3F4F2931310579F70F9486
:10E90000DCF10F5F1F4F0530110519F020E030E0FA
:10E91000E5CF10920A0210920B0210920C02109294
:10E920000D02109206021092070210920802109235
:10E930000902109202021092030210920402109235
:10E9400005028FEE90EE60E00F94F5F180E191EE1C
:10E9500060E00F94C2F18091C00087FFFCCF9091DE
:10E96000C600903608F09F759032B8F09093C600BC
:10E970008091C00086FFFCCF8091C00080648093AE
:10E98000C000A0E2A093C6008091C00086FFFCCF2B
:10E990008091C00080648093C000983409F4D7C18E
:10E9A0009934B8F4923409F459C1933458F490333B
:10E9B00019F1903308F4E3C59F33A1F1903409F0C5
:10E9C000DEC5BDC0953409F470C1963409F0D7C5D1
:10E9D00098C1923509F42BC2933538F49C3409F46C
:10E9E000F5C1913509F0CBC518C2963509F445C279
:10E9F000993509F0C4C567C483E792EE62E00F94CD
:10EA0000F5F110920602109207021092080210927D
:10EA1000090210920A0210920B0210920C0210923C
:10EA20000D0213C18FE792EE62E00F94F5F18FEEC5
:10EA300090EE60E00F94F5F181E291EE60E00F94CA
:10EA4000C2F187EB91EE60E00F94F5F180E391EE77
:10EA500060E00F94C2F184EE90EE60E00F94F5F167
:10EA60008FE391EE60E00F94C2F186E090E061E008
:10EA700070E00F9434F20F94DCF18DE591EE60E0DC
:10EA80000F94C2F189EC91EE60E00F94F5F18EE401
:10EA900091EE60E00F94C2F183EC91EE60E00F9490
:10EAA000F5F18CE691EE60E00F94C2F18EE10F94E7
:10EAB0000DF288E90F940DF281E00F940DF20F949E
:10EAC000DCF18BE791EE60E00F94C2F119E0E0E039
:10EAD000F0E010935700E4918E2F0F940DF20F94F5
:10EAE000DCF18AE891EE60E00F94C2F1E3E0F0E03F
:10EAF00010935700E4918E2F0F940DF20F94DCF1D8
:10EB000089E991EE60E00F94C2F1E2E0F0E0109349
:10EB10005700E4918E2F0F940DF20F94DCF188EAE8
:10EB200091EE60E00F94C2F1E1E0F0E01093570045
:10EB30001491812F0F940DF20F94DCF107CF8BE825
:10EB400092EE62E00F94F5F18BE492EE60E00F94A8
:10EB5000F5F10F94DCF100E010E019C0C8016F2D51
:10EB60000F947FFEFF2031F489E492EE60E00F9471
:10EB7000C2F10BC0F092C6008091C00086FFFCCFAE
:10EB80008091C00080648093C0000F5F1F4FC80158
:10EB900081519F41A0E0B0E0ABBFFC01F790BAE229
:10EBA000FB1621F0E2E000301E07C1F60F94DCF105
:10EBB0000F94DCF187E592EE60E00F94F5F10F948D
:10EBC000DCF1CC24DD2400E010E01EC0C8010F946D
:10EBD00077FEF82E882331F489E492EE60E00F94FA
:10EBE000C2F10BC08093C6008091C00086FFFCCFAD
:10EBF0008091C00080648093C000FE1419F00894D6
:10EC0000C11CD11C0F5F1F4FC80181519F41A0E063
:10EC1000B0E0ABBFFC01E790FAE2EF1621F022E092
:10EC20000030120799F60F94DCF10F94DCF182E6C4
:10EC300092EE60E00F94C2F1C60161E070E00F94C3
:10EC400034F20F94DCF10F94DCF110920202109276
:10EC50000302109204021092050278CE89E992EE26
:10EC600062E00F94F5F1279A2F9A16C02F9880E052
:10EC700090E0E0EDF7E03197F1F7019684369105E9
:10EC8000C1F72F9A80E090E0E0EDF7E03197F1F7DF
:10EC9000019684369105C1F78091C00087FFE6CFC9
:10ECA0008091C00087FFFCCF64C485EA92EE62E0E9
:10ECB0000F94F5F140910202509103026091040219
:10ECC0007091050281E020E10F9491F2809102029F
:10ECD00090910302A0910402B091050280509F4FD1
:10ECE000AF4FBF4F8093020290930302A0930402A0
:10ECF000B093050280509041A040B04008F426CE69
:10ED0000A4CF83EB92EE62E00F94F5F140910602FE
:10ED100050910702609108027091090280E020E1A1
:10ED20000F9491F28091060290910702A09108023F
:10ED3000B091090280509F4FAF4FBF4F80930602A2
:10ED400090930702A0930802B0930902FFCD80ECD4
:10ED500092EE62E00F94F5F183E792EE60E00F949B
:10ED6000F5F18FE792EE60E00F94F5F18BE892EE0B
:10ED700060E00F94F5F189E992EE60E00F94F5F10F
:10ED800085EA92EE60E00F94F5F183EB92EE60E09D
:10ED90000F94F5F180EC92EE60E00F94F5F187ECC2
:10EDA00092EE60E00F94F5F188ED92EE60E00F9442
:10EDB000F5F18FED92EE60E00F94F5F18AEE92EEB0
:10EDC00060E00F94F5F183E093EEBDCD87EC92EE19
:10EDD00062E00F94F5F181E40F947BF282E40F94EA
:10EDE0007BF283E40F947BF284E40F947BF285E45E
:10EDF0000F947BF286E40F947BF287E40F947BF20E
:10EE000088E40F947BF28AE40F947BF28BE40F94F6
:10EE10007BF28CE40F947BF299CD88ED92EE62E068
:10EE20000F94F5F1772473948824992409C48FED05
:10EE300092EE62E00F94F5F140910A0250910B02BC
:10EE400060910C0270910D0282E020E10F9491F22A
:10EE500080910A0290910B02A0910C02B0910D02D8
:10EE600080509F4FAF4FBF4F80930A0290930B0289
:10EE7000A0930C02B0930D0269CD8AEE92EE62E08F
:10EE80000F94F5F184EE90EE60E00F94F5F18FECC5
:10EE900091EE60E00F94F5F1662477244301CC5D98
:10EEA000DE4F19821882C452D140D401C301B695F5
:10EEB000A79597958795CA5DDE4F88839983AA8326
:10EEC000BB83C652D140CC5DDE4FA881B981C4520C
:10EED000D1401196CC5DDE4FB983A883C452D14096
:10EEE000CD0162E070E00F9434F2B0E2B093C6005E
:10EEF0008091C00086FFFCCF8091C0008064809329
:10EF0000C000EDE2E093C6008091C00086FFFCCF18
:10EF10008091C00080648093C000F0E2F093C6004E
:10EF20008091C00086FFFCCF8091C00080648093F8
:10EF3000C000CA5DDE4FE880F9800A811B81C6529D
:10EF4000D140BB27A12F902F8F2D0F940DF2CA5DBA
:10EF5000DE4F8881C652D1400F940DF2B0E2FB2EF5
:10EF6000F092C6008091C00086FFFCCF8091C00067
:10EF700080648093C0000DE30093C6008091C000C0
:10EF800086FFFCCF8091C00080648093C00010E2B7
:10EF90001093C6008091C00086FFFCCF8091C00016
:10EFA00080648093C0008BBEF3012791C65DDE4F65
:10EFB0002883CA52D140A22EBB24CC24DD2408943D
:10EFC000611C711C811C911C8BBEF3018791282E42
:10EFD0003324442455240894611C711C811C911C09
:10EFE0008BBEF3013791C55DDE4F3883CB52D140E4
:10EFF0000894611C711C811C911C8BBEF30147910C
:10F00000C45DDE4F4883CC52D140ADEFEA2EAFEF66
:10F01000FA2EAFEF0A2FAFEF1A2F6E0C7F1C801E57
:10F02000911E142D032DF22CEE24EA0CFB1C0C1D5A
:10F030001D1D0F940DF220E22093C6008091C000A8
:10F0400086FFFCCF8091C00080648093C000C65DC5
:10F05000DE4F8881CA52D1400F940DF230E23093D6
:10F06000C6008091C00086FFFCCF8091C000806404
:10F070008093C000C45DDE4F8881CC52D1400F9494
:10F080000DF240E24093C6008091C00086FFFCCFA5
:10F090008091C00080648093C000C55DDE4F888190
:10F0A000CB52D1400F940DF250E25093C6008091A4
:10F0B000C00086FFFCCF8091C00080648093C000B8
:10F0C0008FEFE8168FEFF80680E0080780E018075A
:10F0D00031F484E092EE60E00F94C2F1DFC0D80119
:10F0E000C7018070907CA070B0708050904CA040A0
:10F0F000B040D1F52FEF3FE340E050E0E222F322B1
:10F1000004231523CA5DDE4FA880B980CA80DB8046
:10F11000C652D140AE0CBF1CC01ED11EAA0CBB1CD7
:10F12000CC1CDD1C8EE092EE60E00F94C2F1BB2798
:10F13000A12F902F8F2D0F940DF28E2D0F940DF285
:10F1400030E23093C6008091C00086FFFCCF8091F2
:10F15000C00080648093C0004EE34093C60080915D
:10F16000C00086FFFCCF87C08EE09EEFA0E0B0E03D
:10F17000E822F9220A231B239CE0E91694E9F90608
:10F1800090E0090790E0190709F088C0C45DDE4FE0
:10F19000A881CC52D140EA2EFF2400E010E0102FCD
:10F1A0000F2DFE2CEE24C55DDE4FB881CB52D14031
:10F1B000EB0EF11C011D111DD601C501817090706F
:10F1C000A070B070DC0199278827E80EF91E0A1F8D
:10F1D0001B1F20EF30E040E050E0A222B322C42207
:10F1E000D52241E1AA0CBB1CCC1CDD1C4A95D1F7F1
:10F1F000EA0CFB1C0C1D1D1D81E090E0A0E0B0E0BE
:10F20000282239224A225B2235E1220C331C441C7D
:10F21000551C3A95D1F7E20CF31C041D151D57013E
:10F220006801AA0CBB1CCC1CDD1C85E192EE60E0E1
:10F230000F94C2F1C801AA27BB270F940DF2BB2778
:10F24000A12F902F8F2D0F940DF28E2D0F940DF274
:10F2500090E29093C6008091C00086FFFCCF809121
:10F26000C00080648093C000AEE3A093C60080918C
:10F27000C00086FFFCCF8091C00080648093C000F6
:10F28000C601AA27BB270F940DF2BB27AD2D9C2DDD
:10F290008B2D0F940DF28A2D0F940DF20F94DCF14B
:10F2A000CC5DDE4FE881F981C452D140F99709F471
:10F2B0004DCBF4E0EF2EF12C012D112D6E0C7F1CA7
:10F2C000801E911EF2CD83E093EE62E00F94F5F183
:10F2D0008AE192EE60E00F94C2F18091C00087FF56
:10F2E000FCCF1091C6001F751093C6008091C0001E
:10F2F00086FFFCCF8091C00080648093C0000F9493
:10F30000DCF1812F81548A3108F036C1163409F4BA
:10F3100095C0173490F4133409F44EC0143430F40B
:10F320001134F1F0123409F01DC130C0143409F465
:10F3300059C0153409F016C16BC01A3409F4C4C0A1
:10F340001B3438F4173409F48FC0183409F00AC19B
:10F35000A1C01B3409F4D2C01C3409F003C1E8C0B9
:10F360008FEF81B90DC082B1809582B980E090E0C5
:10F37000E0EDF7E03197F1F70196883C9105C1F790
:10F380008091C00087FFEFCF12B8EFC08FEF84B934
:10F390000DC085B1809585B980E090E0E0EDF7E0A3
:10F3A0003197F1F70196883C9105C1F78091C00033
:10F3B00087FFEFCF15B8D9C08FEF87B90DC088B1DF
:10F3C000809588B980E090E0E0EDF7E03197F1F7C3
:10F3D0000196883C9105C1F78091C00087FFEFCF6F
:10F3E00018B8C3C08FEF8AB90DC08BB180958BB9A7
:10F3F00080E090E0E0EDF7E03197F1F70196883C8E
:10F400009105C1F78091C00087FFEFCF1BB8ADC059
:10F410008FEF8DB90DC08EB180958EB980E090E0F0
:10F42000E0EDF7E03197F1F70196883C9105C1F7DF
:10F430008091C00087FFEFCF1EB897C08FEF80BBD1
:10F440000DC081B3809581BB80E090E0E0EDF7E0F6
:10F450003197F1F70196883C9105C1F78091C00082
:10F4600087FFEFCF11BA81C08FEF83BB0DC084B38C
:10F47000809584BB80E090E0E0EDF7E03197F1F714
:10F480000196883C9105C1F78091C00087FFEFCFBE
:10F4900014BA6BC08FEF809301010FC080910201FD
:10F4A00080958093020180E090E0E0EDF7E03197F5
:10F4B000F1F70196883C9105C1F78091C00087FF64
:10F4C000EDCF1092020151C08FEF809304010FC065
:10F4D0008091050180958093050180E090E0E0ED4A
:10F4E000F7E03197F1F70196883C9105C1F78091DB
:10F4F000C00087FFEDCF1092050137C08FEF8093DA
:10F5000007010FC08091080180958093080180E079
:10F5100090E0E0EDF7E03197F1F70196883C910536
:10F52000C1F78091C00087FFEDCF109208011DC088
:10F530008FEF80930A010FC080910B01809580931B
:10F540000B0180E090E0E0EDF7E03197F1F70196F4
:10F55000883C9105C1F78091C00087FFEDCF1092E4
:10F560000B0103C085E292EEEEC98091C00087FFD7
:10F57000FCCF8091C600EAC988E392EEE4C98CE131
:10F5800091EEE1C988249924933011F1943028F444
:10F59000913089F09230B8F408C0953061F195301F
:10F5A000F0F0963009F048C043C02B3109F042C951
:10F5B00091E06BE13FC96227C15DDE4F2883CF52E6
:10F5C000D14092E037C9B22FA0E0622793E032C960
:10F5D000822F90E0A82BB92B622794E02BC92E3004
:10F5E00009F039C3622795E0C05DDE4F19821882A9
:10F5F000C053D1401FC9E1E0F0E0EC0FFD1FC05D3A
:10F60000DE4F08811981C053D140E00FF11F2083E4
:10F610000F5F1F4FC05DDE4F19830883C053D14079
:10F6200062270A171B0709F005C9D80196E002C92D
:10F63000261709F010C303C0973009F0FBC87724E0
:10F640009981933109F412C19431C8F4963009F4C8
:10F65000D8C0973050F4923009F406C1933009F4C1
:10F660006DC0913009F059C253C0913109F477C08F
:10F67000923108F0BBC0903109F04FC2F5C098310B
:10F6800009F487C0993150F4953109F4EFC09531F0
:10F6900008F4C6C1963109F040C2C2C19A3109F4DA
:10F6A0006CC09A3108F491C09B3109F45BC09D3164
:10F6B00009F033C29D81903359F48F81882311F46E
:10F6C0009EE11CC0813011F091E018C098E916C08D
:10F6D000892F807591F0903539F4E0E0F0E089E011
:10F6E0008093570094910AC0983539F4E3E0F0E034
:10F6F00089E080935700949101C090E01A821B82A8
:10F700008D818C831D829E831F8227E030E009C299
:10F710001A8288E08B8381E48C8386E58D8382E581
:10F720008E8389E48F8383E5888780E589878FE5E9
:10F730008A8782E38B872BE030E0F3C18A818139AD
:10F7400041F0823941F0803911F48FE005C080E04A
:10F7500003C082E001C08AE01A828B8344C0772410
:10F76000739482C08D81882311F48EE12CC0813086
:10F7700011F081E028C088E926C01A82E1E0F0E0BB
:10F7800089E08093570084918B831C8224E030E0D1
:10F79000C8C18B81803589F48C81883039F4E2E0EE
:10F7A000F0E089E08093570084910DC0E0E0F0E044
:10F7B00089E080935700849106C0E3E0F0E089E09F
:10F7C0008093570084911A82DFCF8D81836C99E0FA
:10F7D000E1E0F0E0082E90935700E89507B600FCB2
:10F7E000FDCF1A821B8223E030E09BC180EC8A832C
:10F7F000CE5CDE4F188219821A821B82C253D1401E
:10F800008EC18A8190E0A0E0B0E0582F44273327D2
:10F8100022278B8190E0A0E0B0E0DC0199278827C7
:10F82000282B392B4A2B5B2B8D8190E0A0E0B0E098
:10F83000282B392B4A2B5B2B8C8190E0A0E0B0E089
:10F84000BA2FA92F982F8827282B392B4A2B5B2BCF
:10F85000220F331F441F551FC05EDE4F288339839C
:10F860004A835B83C052D1401A8259C13A81C95C34
:10F87000DE4F3883C753D140CA5CDE4F1882C6536F
:10F88000D1408B81C82EDD24CA5CDE4F488159816E
:10F89000C653D140C42AD52A933109F082C0CE5C28
:10F8A000DE4F88819981AA81BB81C253D1408050AB
:10F8B000904CA340B04030F583E0CE5CDE4FE88052
:10F8C000F9800A811B81C253D140F70100935B008C
:10F8D00080935700E89507B600FCFDCFCE5CDE4F65
:10F8E000088119812A813B81C253D14000501F4FAA
:10F8F0002F4F3F4FCE5CDE4F088319832A833B8313
:10F90000C253D140C05EDE4F488159816A817B81FC
:10F91000C052D140DE011B9631E08C9111962C91A2
:10F9200011971296C75CDE4F2883C953D140C85C3B
:10F93000DE4F1882C853D14090E0C85CDE4FE881AA
:10F94000F981C853D1408E2B9F2B0C01FA01609393
:10F950005B0030935700E89511244E5F5F4F6F4F67
:10F960007F4F0EEFE02E0FEFF02ECE0CDF1CC114F8
:10F97000D10499F685E0C05EDE4F088119812A81A5
:10F980003B81C052D140F80120935B008093570027
:10F99000E89507B600FCFDCF81E180935700E8951C
:10F9A00035C0C05EDE4F88819981AA81BB81C0527B
:10F9B000D140B695A795979587957C018601ABE0D8
:10F9C000AA2EB12CAC0EBD1E0BC0D5016D915D01F0
:10F9D000C7010F947FFE0894E11CF11C01501040F8
:10F9E0000115110591F7A60160E070E0440F551F65
:10F9F000661F771FC05EDE4FE880F9800A811B8199
:10FA0000C052D1404E0D5F1D601F711F1A82C05E33
:10FA1000DE4F488359836A837B83C052D1407FC0C5
:10FA2000FA80C55CDE4FF882CB53D140C65CDE4F16
:10FA30001882CA53D1408B81C82EDD24C65CDE4FAC
:10FA400008811981CA53D140C02AD12A1A828981DA
:10FA5000BE016D5F7F4F843121F59601C05EDE4FA0
:10FA6000E880F9800A811B81C052D1400BBFF701A9
:10FA700087919691DB018C9311969C936E5F7F4FDB
:10FA8000D801C7010296A11DB11DC05EDE4F88835B
:10FA90009983AA83BB83C052D14022503040F1F6F3
:10FAA00036C0C05EDE4F288139814A815B81C052F9
:10FAB000D1400894C108D108760100E010E0089414
:10FAC000C11CD11C0894E11CF11C011D111DE20E8A
:10FAD000F31E041F151F21BDBB27A52F942F832FB5
:10FAE00082BD2F5F3F4F4F4F5F4FF89A80B5DB01CC
:10FAF0008D93BD012E153F054007510761F7C05E8C
:10FB0000DE4F288339834A835B83C052D1409601FC
:10FB10002D5F3F4FFB01108204C080EC8A8322E0FE
:10FB200030E08BE18093C6008091C00086FFFCCF5F
:10FB30008091C00080648093C000C15DDE4FF88179
:10FB4000CF52D140F093C6008091C00086FFFCCF19
:10FB50008091C00080648093C000432F3093C60022
:10FB60008091C00086FFFCCF8091C00080648093AC
:10FB7000C000922F2093C6008091C00086FFFCCF6A
:10FB80008091C00080648093C0008EE08093C600A6
:10FB90008091C00086FFFCCF8091C000806480937C
:10FBA000C00065E1C15DDE4FE880CF52D1406E25D7
:10FBB00069276427FE01319610C090819093C6009A
:10FBC0008091C00086FFFCCF31968091C000806498
:10FBD0008093C0006927215030402115310569F715
:10FBE0006093C6008091C00086FFFCCF8091C0006A
:10FBF00080648093C00085B1805885B9772081F4F6
:10FC0000C15DDE4F0881CF52D1400F5FC15DDE4F35
:10FC10000883CF52D14090E0A0E0B0E00D941AF4F8
:10FC200027982F9880E090E020ED37E0F901319798
:10FC3000F1F7019684369105C9F700008091C00064
:10FC40008D7F8093C00081E180935700E895EE2777
:10FC5000FF270994FFCF90E00D941AF497FB092E2B
:10FC600007260AD077FD04D02ED006D000201AF443
:10FC7000709561957F4F0895F6F7909581959F4F08
:10FC80000895A1E21A2EAA1BBB1BFD010DC0AA1FDD
:10FC9000BB1FEE1FFF1FA217B307E407F50720F0F5
:10FCA000A21BB30BE40BF50B661F771F881F991F70
:10FCB0001A9469F760957095809590959B01AC01B9
:10FCC000BD01CF010895AA1BBB1B51E107C0AA1FAC
:10FCD000BB1FA617B70710F0A61BB70B881F991FED
:10FCE0005A95A9F780959095BC01CD010895F99991
:10FCF000FECF92BD81BDF89A992780B50895262F31
:10FD0000F999FECF1FBA92BD81BD20BD0FB6F89400
:0EFD1000FA9AF99A0FBE01960895F894FFCF63
:040000033000E000E9
:00000001FF