:1000000019C1000047C1000045C1000043C1000004
:1000100041C100003FC100003DC100003BC10000E4
:1000200039C1000037C1000035C1000033C10000F4
:1000300031C100002FC100002DC10000BAC4000072
:1000400029C1000027C1000025C1000023C1000014
:1000500021C100001FC100001DC1000060C40000DC
:1000600019C10000D6C20000ABC2000013C10000DD
:1000700011C100000FC100000DC100000BC1000044
:1000800009C1000007C1000005C1000003C1000054
:1000900061C2000036C20000FDC00000FBC00000CD
:1000A000F9C00000F7C00000F5C00000F3C0000078
:1000B000F1C00000EFC00000EDC00000EBC0000088
:1000C000E9C00000E7C00000E5C00000E3C0000098
:1000D000E1C00000DFC00000DDC00000DBC00000A8
:1000E000D9C000006E037103600364036803A803B2
:1000F000750379037F03830387038D0391039503BE
:10010000A8039B039F03A303E303E803ED03F703A3
:1001100001047A040B0413041B0425042F0439047E
:10012000480452047A045C046604700400000A0B5C
:1001300002090C0D0E080703040100000000000076
:1001400000000000000000000000000000000000AF
:10015000000000000000000012111000000000006C
:10016000000000000000000000000000000000008F
:10017000000000002200250028002B002E00310086
:10018000340002010000050108010B0100002100FC
:10019000240027002A002D00300033000101000058
:1001A000040107010A0105050505070508080808F7
:1001B000020202020A0A08080404040401010101FF
:1001C00001010101030303030303030304070707FA
:1001D0000C0C0C0C0C0C0C0C02020202060606069F
:1001E000060606060B0B0B0B0B0B0B0B010210206C
:1001F000200808102040102040800201020108045D
:1002000002010102040810204080804020100804F0
:100210000201800402018040201008040201080449
:10022000020101020408102040800102040810208D
:100230004080B70C11241FBECFEFD1E2DEBFCDBF8F
:1002400000E00CBF24E0A4EBB2E001C01D92AA368E
:10025000B207E1F712E0A0E0B2E0E6EFFAE100E079
:100260000BBF02C007900D92A43BB107D9F711E074
:10027000CAE1D1E000E006C021970109802FFE010C
:100280000E946D0DC931D10780E00807A9F783D519
:100290000C94790DB5CE089580E090E00895FC01AE
:1002A000538D448D252F30E0842F90E0821B930BDB
:1002B000541710F0CF96089501970895FC01918D81
:1002C000828D981761F0828DDF01A80FB11D5D96B8
:1002D0008C91928D9F5F9F73928F90E008958FEF26
:1002E0009FEF0895FC01918D828D981731F0828DDA
:1002F000E80FF11D858D90E008958FEF9FEF089531
:10030000FC01918D228D892F90E0805C9F4F821B94
:1003100091098F73992708958BED92E0F1DF21E029
:10032000892B09F420E0822F089588E793E0E8DF25
:1003300021E0892B09F420E0822F0895FC01848DAF
:10034000DF01A80FB11DA35ABF4F2C91848D90E0FF
:1003500001968F739927848FA689B7892C93A089DA
:10036000B1898C91837080648C93938D848D981364
:1003700006C00288F389E02D80818F7D80830895F7
:10038000EF92FF920F931F93CF93DF93EC0181E0E5
:10039000888F9B8D8C8D981305C0E889F9898081A1
:1003A00085FD25C0F62E0B8D10E00F5F1F4F0F73DC
:1003B0001127E02E8C8DE8120BC00FB607FCFACF88
:1003C000E889F989808185FFF5CFCE01B7DFF2CFCB
:1003D0008B8DFE01E80FF11DE35AFF4FF0829FB7AE
:1003E000F8940B8FEA89FB89808180620AC09FB7ED
:1003F000F894EE89FF896083E889F98980818370A8
:10040000806480839FBF81E090E0DF91CF911F9156
:100410000F91FF90EF900895CF93DF93EC01888DBB
:100420008823C1F0EA89FB89808185FD05C0A88900
:10043000B9898C9186FD0EC00FB607FCF5CF80817F
:1004400085FFF2CFA889B9898C9185FFEDCFCE01C8
:1004500075DFE8CFDF91CF91089580E090E0892BA0
:1004600019F063DF811120C080E090E0892B19F042
:1004700053DF81111CC080E090E0892B41F080E0C7
:1004800090E0892B21F00E940000811113C080E0D0
:1004900090E0892BA1F080E090E0892B81F00E9410
:1004A000000081110AC008950E940000DDCF0E9463
:1004B0000000E1CF0E940000EACF0C9400000895F4
:1004C0006FE872E08BED92E02CD480916804BFD38A
:1004D00065E972E08BED92E024D48091670483306B
:1004E00019F46DE972E009C0843019F462EA72E02F
:1004F00004C0853029F467EA72E08BED92E0FFC317
:1005000008951F920F920FB60F9211240BB60F92FF
:100510002F933F934F935F936F937F938F939F930B
:10052000AF93BF93EF93FF938BED92E007DFFF91C3
:10053000EF91BF91AF919F918F917F916F915F915B
:100540004F913F912F910F900BBE0F900FBE0F90C8
:100550001F9018951F920F920FB60F9211240BB691
:100560000F922F938F939F93EF93FF93E091EB0262
:10057000F091EC028081E091F102F091F20282FDB3
:1005800012C090818091F4028F5F8F732091F502E9
:10059000821751F0E091F402F0E0E552FD4F958FA3
:1005A0008093F40201C08081FF91EF919F918F9120
:1005B0002F910F900BBE0F900FBE0F901F901895AC
:1005C0001F920F920FB60F9211240BB60F922F931A
:1005D0003F934F935F936F937F938F939F93AF93CB
:1005E000BF93EF93FF9388E793E0A8DEFF91EF912D
:1005F000BF91AF919F918F917F916F915F914F913B
:100600003F912F910F900BBE0F900FBE0F901F9038
:1006100018951F920F920FB60F9211240BB60F92DE
:100620002F938F939F93EF93FF93E0918803F09123
:1006300089038081E0918E03F0918F0382FD12C0C7
:100640009081809191038F5F8F7320919203821725
:1006500051F0E0919103F0E0E858FC4F958F8093C2
:10066000910301C08081FF91EF919F918F912F9114
:100670000F900BBE0F900FBE0F901F901895362F46
:1006800090E0FC01E45DFE4F4491FC01E451FE4F1B
:100690002491FC01EA55FE4F9491992309F46CC012
:1006A000442309F455C050E0FA013197E231F105D5
:1006B00008F04EC08827EE58FF4F8F4F0C946D0DF9
:1006C000809180008F7707C0809180008F7D03C06C
:1006D00080918000877F809380003AC084B58F77B7
:1006E00002C084B58F7D84BD33C08091B0008F7708
:1006F00003C08091B0008F7D8093B00029C08091AD
:1007000090008F7707C0809190008F7D03C080910B
:100710009000877F809390001BC08091A0008F770E
:1007200007C08091A0008F7D03C08091A000877FCB
:100730008093A0000DC0809120018F7707C0809129
:1007400020018F7D03C080912001877F809320014D
:10075000E92FF0E0EE0FFF1FEE58FE4FA591B49188
:100760009FB7F894311104C08C912095282302C0C2
:10077000EC912E2B2C939FBF08951F93CF93DF9363
:10078000182FEB01B7D1209711F460E004C0CF3FE0
:10079000D10531F461E0812FDF91CF911F916FCFAF
:1007A000E12FF0E0E45DFE4FE4918E2F90E0FC013C
:1007B0003197E231F10508F09DC08827EC57FF4FD3
:1007C0008F4F0C946D0D84B5806884BDC7BD97C0F4
:1007D00084B5806284BDC8BD92C08091800080686D
:1007E00080938000D0938900C093880088C0809156
:1007F0008000806280938000D0938B00C0938A0039
:100800007EC080918000886080938000D0938D00AE
:10081000C0938C0074C08091B00080688093B00059
:10082000C093B3006CC08091B00080628093B00030
:10083000C093B40064C08091900080688093900061
:10084000D0939900C09398005AC080919000806224
:1008500080939000D0939B00C0939A0050C08091E9
:100860009000886080939000D0939D00C0939C007E
:1008700046C08091A00080688093A0008091A00075
:100880008F7B8093A000D093A900C093A80037C0AD
:100890008091A00080628093A000D093AB00C093B1
:1008A000AA002DC08091A00088608093A000D09302
:1008B000AD00C093AC0023C080912001806880937C
:1008C0002001D0932901C093280119C080912001F3
:1008D000806280932001D0932B01C0932A010FC026
:1008E00080912001886080932001D0932D01C093D6
:1008F0002C0105C0C038D1050CF04CCF46CFDF919C
:10090000CF911F9108952FB7F8946091D7027091FD
:10091000D8028091D9029091DA022FBF08951F92D8
:100920000F920FB60F9211242F933F938F939F93A3
:10093000AF93BF938091D7029091D802A091D90232
:10094000B091DA023091D60223E0230F2D3720F444
:100950000196A11DB11D05C026E8230F0296A11D19
:10096000B11D2093D6028093D7029093D802A09312
:10097000D902B093DA028091D2029091D302A09171
:10098000D402B091D5020196A11DB11D8093D2026F
:100990009093D302A093D402B093D502BF91AF91AC
:1009A0009F918F913F912F910F900FBE0F901F90AD
:1009B00018951F920F920FB60F9211240BB60F923B
:1009C0002F933F934F935F936F937F938F939F9357
:1009D000AF93BF93EF93FF938091B4029091B502D0
:1009E0008093B2008091CE029091CF02A091D0026C
:1009F000B091D1020196A11DB11D8093CE029093BA
:100A0000CF02A093D002B093D1028091CE029091F8
:100A1000CF02A091D002B091D1024091B802509182
:100A2000B9026091BA027091BB0284179507A607BC
:100A3000B70710F18091CD0281111EC081E0809333
:100A4000CD028091CE029091CF02A091D002B091C0
:100A5000D102841B950BA60BB70B8093CE0290930B
:100A6000CF02A093D002B093D102E091B602F091F0
:100A7000B70219951092CD02FF91EF91BF91AF91FE
:100A80009F918F917F916F915F914F913F912F91A6
:100A90000F900BBE0F900FBE0F901F901895CF9226
:100AA000DF92EF92FF920F931F93CF93DF936C012E
:100AB0007A018B01C0E0D0E0CE15DF0581F0D801CE
:100AC0006D918D01D601ED91FC910190F081E02DA9
:100AD000C6011995892B11F02196EECF7E01C70131
:100AE000DF91CF911F910F91FF90EF90DF90CF900A
:100AF0000895FBD790E0FC01E451FE4F2491FC01E6
:100B0000EA55FE4F8491882399F090E0880F991F51
:100B1000FC01E457FE4FA591B491FC01EE58FE4F45
:100B2000859194918FB7F894EC91E22BEC938FBF61
:100B30000895FC01A089B18982E08C93A485B585D4
:100B40001C92A685B7858FEC8C93108EA489B589ED
:100B500086E08C93A289B3898C9180618C93A28961
:100B6000B3898C9188608C93A289B3898C918068B9
:100B70008C930288F389E02D80818F7D8083089596
:100B8000CF93DF93CDE5D4E060E070E08A81F5DDBE
:100B900060E070E08B81DF91CF91EFCDCF93DF9359
:100BA000CDE5D4E060E08C816ADD61E08D8167DDB8
:100BB00061E08E8164DD60E08F81DF91CF915FCD58
:100BC000823091F0833009F1813001F560E080914D
:100BD000610455DD61E08091620451DD60E0809147
:100BE00063044DDD61E00DC061E08091610447DD8B
:100BF00060E08091620443DD61E0809163043FDD49
:100C000060E0809164043BDD01C0C8DF60915E0458
:100C100070E080915F04B1DD60915D0470E08091CF
:100C20006004ABCD6115710579F0FB0101900020E6
:100C3000E9F73197AF01461B570BDC01ED91FC91B1
:100C40000280F381E02D199480E090E00895CF9325
:100C5000DF93682F8BED92E093DBEC0165E272E0AD
:100C60008BED92E0DFDF8C0F9D1FDF91CF91089518
:100C70008F929F92AF92BF92EF92FF920F931F932A
:100C8000CF93DF93CDB7DEB7A1970FB6F894DEBF51
:100C90000FBECDBF7C01FA01CB0119A2223008F4AE
:100CA0002AE08E010F5D1F4F822E912CA12CB12CBA
:100CB000BF01A5019401EFD6F901CA010150110944
:100CC0006A3014F4605D01C0695CD8016C93232B19
:100CD000242B252B69F7B801C701A4DFA1960FB615
:100CE000F894DEBF0FBECDBFDF91CF911F910F9162
:100CF000FF90EF90BF90AF909F908F9008950F93CB
:100D00001F93CF93DF93EC018DDF8C0165E272E0DE
:100D1000CE0188DF800F911FDF91CF911F910F913E
:100D2000089580CFCF93DF93CDE5D4E08A876BEA37
:100D300072E08BED92E0F5DF4A8550E060E070E014
:100D40002AE08BED92E094DF65E272E08BED92E0B9
:100D5000DF91CF9167CFCF93DF93CDE5D4E048818A
:100D600050E060E070E02AE08BED92E081DF6DE220
:100D700072E08BED92E0D5DF498150E060E070E0F9
:100D80002AE08BED92E074DF65E272E08BED92E099
:100D9000DF91CF9147CF789484B5826084BD84B5CC
:100DA000816084BD85B5826085BD85B5816085BD66
:100DB00080916E00816080936E001092810080911E
:100DC00081008260809381008091810081608093A6
:100DD0008100809180008160809380008091B100CB
:100DE00084608093B1008091B00081608093B000F6
:100DF0008091910082608093910080919100816048
:100E00008093910080919000816080939000809108
:100E1000A10082608093A1008091A10081608093F5
:100E2000A1008091A00081608093A00080912101A9
:100E30008260809321018091210181608093210152
:100E40008091200181608093200180917A008460EC
:100E500080937A0080917A00826080937A008091FA
:100E60007A00816080937A0080917A008068809314
:100E70007A001092C1001092590410925A041092F4
:100E80005B0410925C0410921704109218041092E4
:100E9000190410921A0437DD6B017C014B015C01CF
:100EA00028EB820E2BE0921EA11CB11C2CDD6C15D0
:100EB0007D058E059F0528F086169706A806B906BB
:100EC000A8F788E793E0909358048093570431DEA5
:100ED0001ADD60931704709318048093190490939B
:100EE0001A0466E172E0809157049091580419DF6A
:100EF0000ADD6B017C014B015C013AE0830E911C21
:100F0000A11CB11C00DD6C157D058E059F0528F028
:100F100086169706A806B906A8F781E080932B04E9
:100F200088E793E006DE8BED92E003DE8EEE92E042
:100F3000A0E0B0E08093B8029093B902A093BA0207
:100F4000B093BB0280E692E09093B7028093B60222
:100F5000809170008E7F809370008091B0008C7FB4
:100F60008093B0008091B100877F8093B100809121
:100F7000B6008F7D8093B600809170008D7F809346
:100F800070008091B10084608093B1008091B100C5
:100F90008C7F8093B10086E090E09093B5028093BF
:100FA000B4028DE0A7DD8CE0A5DD8BE0A3DD60E081
:100FB0008DE065DB60E08CE062DB60E08BE05FDBB6
:100FC0001092C4021092C3021092BE021092BD028F
:100FD00084EF482E55245394612C712CCFEFD0E030
:100FE00098E1292E3324339406E111E08CDC672B41
:100FF000682B692B39F487DC623071058105910516
:1010000008F4F7C080DCC090C902D090CA02E0901A
:10101000CB02F090CC026C157D058E059F0540F447
:101020006093C9027093CA028093CB029093CC0262
:10103000C090C902D090CA02E090CB02F090CC02DE
:101040009B01AC012C193D094E095F0969017A0128
:101050003AEFC316D104E104F10408F4CAC0609366
:10106000C9027093CA028093CB029093CC02409243
:101070002304509224046092250470922604109256
:101080002704109228041092290410922A048091B7
:101090001B0490911C04A0911D04B0911E04809328
:1010A0001F0490932004A0932104B09322042BDC0E
:1010B00060931B0470931C0480931D0490931E0482
:1010C00022DC6093170470931804809319049093A2
:1010D0001A0419DC6B017C0168E272E0809157040C
:1010E000909158041EDE2AE041E050E060E070E09C
:1010F0008091570490915804BBDD6FE272E08091BB
:101100005704909158040DDE2AE0B701A6018091A2
:10111000570490915804ACDD61E372E0809157046C
:1011200090915804FEDD80911B0490911C04A091C5
:101130001D04B0911E04B701A601481B590B6A0B90
:101140007B0B2AE0809157049091580491DD61E374
:1011500072E08091570490915804E3DD40911B04A4
:1011600050911C0460911D0470911E0480911F0415
:1011700090912004A0912104B0912204481B590BA6
:101180006A0B7B0B2AE0809157049091580470DD24
:1011900063E372E08091570490915804C2DDB3DBA1
:1011A000AB01BC012AE0809157049091580460DDA6
:1011B00065E372E08091570490915804A0DDA3DBB1
:1011C0006B017C014B015C0145E0840E911CA11C6C
:1011D000B11C99DB6C157D058E059F0508F09BC23F
:1011E00092DB60931B0470931C0480931D04909306
:1011F0001E048091C3029091C4028E36910591F134
:1012000030F40097D9F08835910551F09DC0803EAB
:10121000910509F44BC0893E910509F481C094C041
:1012200080916804803251F0813209F4A9DC809108
:101230006804893609F076C284E074DD80E2809328
:1012400068048BED92E05CD8892B29F08BED92E05D
:1012500035D88093680488E590E09093C402809329
:10126000C30276C080916704853009F46AC2833076
:1012700009F479C2843011F7809168048134B9F59A
:1012800081E09EDC60E472E08BED92E038DD3BDBD8
:101290006093C5027093C6028093C7029093C80200
:1012A00040EE50E05093C4024093C3022CDBC09048
:1012B000C502D090C602E090C702F090C802AB0110
:1012C000BC014C195D096E097F0980910202909161
:1012D0000302A0E0B0E0481759076A077B07C0F196
:1012E0004FDC67E572E08BED92E009DDA7CF843437
:1012F00009F0F4C282E064DC6AE672E08BED92E011
:10130000FEDC01DB6093C5027093C6028093C702C6
:101310009093C80289EE90E09093C4028093C30238
:10132000F2DAC090C502D090C602E090C702F090F9
:10133000C802AB01BC014C195D096E097F0980919F
:10134000000290910102C5CF1092C4021092C30214
:101350008091BD029091BE028D3121E0920709F487
:10136000F8C0B8F4813141E0940709F471C038F451
:10137000009741F18F30914009F441C0C5C18631D9
:1013800031E0930709F490C08831914009F4B3C06B
:10139000BBC1863251E0950709F459C150F48F3131
:1013A00031E0930709F4FEC08432914009F426C16C
:1013B000ABC18C3251E0950709F47AC18433914076
:1013C00009F0A2C180916904882309F48AC11092AE
:1013D000BC026091BC026F3F61F170E08DE0CDD93D
:1013E00092DA6093BF027093C0028093C10290931F
:1013F000C2028FE091E09093BE028093BD0283DA37
:10140000C090BF02D090C002E090C102F090C20232
:10141000DC01CB018C199D09AE09BF090597A10517
:10142000B10508F475C18091BC028F5F8093BC0246
:10143000D0CF69DA6093BF027093C0028093C1027B
:101440009093C20281E191E09093BE028093BD022D
:101450005ADAC090BF02D090C002E090C102F09072
:10146000C2026C157D058E059F0509F451C11092CD
:10147000BC028091BC028F3F89F1E82EF12CBE01A5
:101480006E197F098DE079D9B7018CE076D93BDA06
:101490006093BF027093C0028093C1029093C20216
:1014A0001093BE020093BD022EDAC090BF02D0900E
:1014B000C002E090C102F090C202DC01CB018C19A5
:1014C0009D09AE09BF090597A105B10508F420C122
:1014D0008091BC028F5F8093BC02CBCF14DA609303
:1014E000BF027093C0028093C1029093C2023092F7
:1014F000BE022092BD0207DAC090BF02D090C002A7
:10150000E090C102F090C2026C157D058E059F052A
:1015100009F4FEC01092BC028091BC028F3F99F189
:10152000E82EF12CBE016E197F098CE026D9B70197
:101530008BE023D9E8D96093BF027093C0028093F7
:10154000C1029093C2024DE151E05093BE0240931C
:10155000BD02D9D9C090BF02D090C002E090C102B4
:10156000F090C202DC01CB018C199D09AE09BF09C4
:101570000597A105B10508F4CBC08091BC028F5F2F
:101580008093BC02C9CFBFD96093BF027093C002E1
:101590008093C1029093C2028FE191E09093BE02CA
:1015A0008093BD02B0D9C090BF02D090C002E0903D
:1015B000C102F090C2026C157D058E059F0509F4ED
:1015C000A7C01092BC028091BC028F3F89F1E82E27
:1015D000F12CB7018CE0D1D8B7018DE0CED893D9EA
:1015E0006093BF027093C0028093C1029093C202C5
:1015F00024E231E03093BE022093BD0284D9C09032
:10160000BF02D090C002E090C102F090C202DC01A3
:10161000CB018C199D09AE09BF090597A105B1053C
:1016200008F476C08091BC028F5F8093BC02CBCF60
:101630006AD96093BF027093C0028093C1029093F5
:10164000C20246E251E05093BE024093BD025BD914
:10165000C090BF02D090C002E090C102F090C202E0
:101660006C157D058E059F0509F452C01092BC02D1
:101670008091BC028F3F09F4A5CE7E01E81AF108E3
:10168000B7018CE07AD8B7018DE077D8B7018BE04D
:1016900074D839D96093BF027093C0028093C1029D
:1016A0009093C2028CE291E09093BE028093BD02BF
:1016B0002AD9C090BF02D090C002E090C102F09041
:1016C000C202DC01CB018C199D09AE09BF09059747
:1016D000A105B105E8F08091BC028F5F8093BC0248
:1016E000C7CF60E070E08DE048D860E070E08CE04B
:1016F00044D860E070E08BE040D884E391E09093C0
:10170000BE028093BD0204C01092BE021092BD02C0
:101710000E942D026BCC86169706A806B90608F023
:1017200058CD5ECD8D3611F483E087CD813711F42D
:1017300085E083CD2EE630E03093C4022093C302CF
:1017400007CE8BED92E00E948001892B09F476CDC3
:101750008BED92E00E945E018093680480935E04AA
:1017600080935D04E1CF80916804803209F06FDAE4
:10177000809168048D3409F4A6C0BCF4813409F466
:1017800081C054F48B3209F48BC08D3209F493C0BC
:10179000833209F053CDA0C08B3409F478C024F50E
:1017A000843409F04BCD82E070C08735A1F16CF430
:1017B000803509F47AC0833509F43FC08F3409F0CD
:1017C0003DCD80915E04865F68C0843609F45CC0BC
:1017D00024F4813609F458C031CD833709F450C060
:1017E000873709F44DC02ACD80916904882349F0D8
:1017F00060E070E0809165040E94BD03109269046E
:101800001DCD61E070E0809165040E94BD0381E020
:101810008093690413CDC2D960915E0470E0809119
:101820005F040E94BD0360915D0470E080916004DC
:101830000E94BD036CE372E056CD61E080916104CB
:101840000E943F0360E0809162040E943F0360E0D9
:10185000809163040E943F0361E0809164040E94D0
:101860003F0360915E0470E080915F040E94BD03BD
:1018700060915D0470E0809160040E94BD03DECC45
:101880007FD9DCCC81E001C083E09AD9D7CC8091AC
:101890005E048A50833308F482E380935E041CC0A4
:1018A00080915E04865F80935E0480915D04865F14
:1018B00080935D0411C080915E048A50833308F4E4
:1018C00082E380935E0480915D048A5080935D047E
:1018D000833310F482E3ECCF3EDAB0CC8B3289F460
:1018E00080910202909103028C599F4F90930302C2
:1018F0008093020280910002909101028C599F4FC7
:1019000013C08D3209F09ACC8091020290910302AB
:101910008456910990930302809302028091000201
:1019200090910102845691099093010280930002E4
:1019300062E872E08BED92E0F4D94091020250919E
:10194000030260E070E02AE08BED92E091D94091D3
:1019500000025091010260E070E02AE08BED92E01D
:1019600087D965E272E08BED92E05CD967CCCF93CA
:10197000DF93EBEDF2E01382128248EE53E060E079
:1019800070E0448355836683778388E092E0918397
:1019900080832DEC30E0358724872CEC30E03787CE
:1019A000268728EC30E0318B208B29EC30E0338B1C
:1019B000228B2AEC30E0358B248B2EEC30E0378BF9
:1019C000268B118E128E138E148EE8E7F3E01382AD
:1019D000128244835583668377839183808385EC69
:1019E00090E09587848784EC90E09787868780ECE9
:1019F00090E0918B808B81EC90E0938B828B82ECDA
:101A000090E0958B848B86EC90E0978B868B118E83
:101A1000128E138E148EE5E1F4E016821782108682
:101A20001186128613861486158616861786108AE6
:101A3000118A128A138A148A158ACDE5D4E081E0CE
:101A40008C8784E68883898384E08A8785E08A831B
:101A500086E08B838EE28C8380E38D8382E38E83AA
:101A600084E38F8383E0888780E28B8761E070E086
:101A700083E00E94BD038A813DD88B813BD88C8155
:101A800039D88D8137D88E8135D88F8133D88885E4
:101A9000DF91CF912FC8A1E21A2EAA1BBB1BFD011B
:101AA0000DC0AA1FBB1FEE1FFF1FA217B307E4073D
:101AB000F50720F0A21BB30BE40BF50B661F771F95
:101AC000881F991F1A9469F7609570958095909575
:101AD0009B01AC01BD01CF010895EE0FFF1F881FD0
:101AE0008BBF0790F691E02D199481E090E0F89477
:061AF00000C0F894FFCFD6
:101AF600BC02200300000000C0014F054F010C028C
:101B060080015E017201564D4450565F317C315F53
:101B1600564D4450560D0A00564D4450455F003A06
:101B2600323A007C005F564D44504500474F310025
:101B36004C656674205475726E5F74696D65205FBE
:101B460020626567696E005475726E5F74696D65B3
:101B56002054696D65206F7574005269676874203A
:101B66005475726E5F74696D65205F206265676982
:101B76006E005475726E5F74696D65203D2000635A
:101B860068203D20006D6F6465203D20004D4F5656
:101B9600450046494E4400534554004D6F64652048
:041BA6003D200000DE
:00000001FF
