:1000000019C1000047C1000045C1000043C1000004
:1000100041C100003FC100003DC100003BC10000E4
:1000200039C1000037C1000035C1000033C10000F4
:1000300031C100002FC100002DC10000F3C4000039
:1000400029C1000027C1000025C1000023C1000014
:1000500021C100001FC100001DC1000099C40000A3
:1000600019C1000029C30000FEC2000013C1000036
:1000700011C100000FC100000DC100000BC1000044
:1000800009C1000007C1000005C1000003C1000054
:10009000C1C2000096C20000FDC00000FBC000000D
:1000A000F9C00000F7C00000F5C00000F3C0000078
:1000B000F1C00000EFC00000EDC00000EBC0000088
:1000C000E9C00000E7C00000E5C0000051C2000028
:1000D00026C20000DFC00000DDC00000DBC0000061
:1000E000D9C00000B403B703A603AA03AE03EE030E
:1000F000BB03BF03C503C903CD03D303D703DB038E
:10010000EE03E103E503E90328042D0432043C0473
:100110004604BF045004580460046A0474047E0456
:100120008D049704BF04A104AB04B50400000A0BBE
:1001300002090C0D0E080703040100000000000076
:1001400000000000000000000000000000000000AF
:10015000000000000000000012111000000000006C
:10016000000000000000000000000000000000008F
:10017000000000002200250028002B002E00310086
:10018000340002010000050108010B0100002100FC
:10019000240027002A002D00300033000101000058
:1001A000040107010A0105050505070508080808F7
:1001B000020202020A0A08080404040401010101FF
:1001C00001010101030303030303030304070707FA
:1001D0000C0C0C0C0C0C0C0C02020202060606069F
:1001E000060606060B0B0B0B0B0B0B0B010210206C
:1001F000200808102040102040800201020108045D
:1002000002010102040810204080804020100804F0
:100210000201800402018040201008040201080449
:10022000020101020408102040800102040810208D
:100230004080290B11241FBECFEFD1E2DEBFCDBF1E
:1002400000E00CBF24E0A6E5B2E001C01D92A63A92
:10025000B207E1F712E0A0E0B2E0E6E2F8E100E088
:100260000BBF02C007900D92A635B107D9F711E078
:10027000CAE1D1E000E006C021970109802FFE010C
:100280000E94050CC931D10780E00807A9F7A1D564
:100290000C94110CB5CE089580E090E00895FC0117
:1002A000538D448D252F30E0842F90E0821B930BDB
:1002B000541710F0CF96089501970895FC01918D81
:1002C000828D981761F0828DDF01A80FB11D5D96B8
:1002D0008C91928D9F5F9F73928F90E008958FEF26
:1002E0009FEF0895FC01918D828D981731F0828DDA
:1002F000E80FF11D858D90E008958FEF9FEF089531
:10030000FC01918D228D892F90E0805C9F4F821B94
:1003100091098F739927089589E792E0F1DF21E031
:10032000892B09F420E0822F089586E193E0E8DF2D
:1003300021E0892B09F420E0822F089583EB93E0DC
:10034000DFDF21E0892B09F420E0822F0895FC01F2
:10035000848DDF01A80FB11DA35ABF4F2C91848D4E
:1003600090E001968F739927848FA689B7892C9383
:10037000A089B1898C91837080648C93938D848DD6
:10038000981306C00288F389E02D80818F7D8083D9
:100390000895EF92FF920F931F93CF93DF93EC0199
:1003A00081E0888F9B8D8C8D981305C0E889F98931
:1003B000808185FD25C0F62E0B8D10E00F5F1F4F4D
:1003C0000F731127E02E8C8DE8120BC00FB607FCBF
:1003D000FACFE889F989808185FFF5CFCE01B7DFB3
:1003E000F2CF8B8DFE01E80FF11DE35AFF4FF08233
:1003F0009FB7F8940B8FEA89FB89808180620AC0DD
:100400009FB7F894EE89FF896083E889F989808134
:100410008370806480839FBF81E090E0DF91CF9103
:100420001F910F91FF90EF900895CF93DF93EC0110
:10043000888D8823C1F0EA89FB89808185FD05C00C
:10044000A889B9898C9186FD0EC00FB607FCF5CF3F
:10045000808185FFF2CFA889B9898C9185FFEDCF86
:10046000CE0175DFE8CFDF91CF91089580E090E075
:10047000892B19F063DF81111BC080E090E0892B8C
:1004800019F053DF811117C080E090E0892B19F03B
:1004900043DF811113C080E090E0892BA1F080E060
:1004A00090E0892B81F00E94000081110AC008951C
:1004B0000E940000E2CF0E940000E6CF0E940000F0
:1004C000EACF0C94000008952FB7F8946091600271
:1004D0007091610280916202909163022FBF089532
:1004E00062E172E086E193E0BDD38091A304E0D3A2
:1004F00068E172E086E193E0B5D38091A204833095
:1005000019F480E292E009C0843019F485E292E0A7
:1005100004C0853019F48AE292E0B9C308951F92AD
:100520000F920FB60F9211240BB60F922F933F9399
:100530004F935F936F937F938F939F93AF93BF93EB
:10054000EF93FF9389E792E002DFFF91EF91BF9174
:10055000AF919F918F917F916F915F914F913F915B
:100560002F910F900BBE0F900FBE0F901F901895FC
:100570001F920F920FB60F9211240BB60F922F936A
:100580003F934F935F936F937F938F939F93AF931B
:10059000BF93EF93FF9389E792E04BD3FF91EF91E5
:1005A000BF91AF919F918F917F916F915F914F918B
:1005B0003F912F910F900BBE0F900FBE0F901F9089
:1005C00018951F920F920FB60F9211240BB60F922F
:1005D0002F933F934F935F936F937F938F939F934B
:1005E000AF93BF93EF93FF9386E193E0B0DEFF916B
:1005F000EF91BF91AF919F918F917F916F915F919B
:100600004F913F912F910F900BBE0F900FBE0F9007
:100610001F9018951F920F920FB60F9211240BB6D0
:100620000F922F933F934F935F936F937F938F938B
:100630009F93AF93BF93EF93FF9386E193E0F9D23B
:10064000FF91EF91BF91AF919F918F917F916F91AA
:100650005F914F913F912F910F900BBE0F900FBE66
:100660000F901F9018951F920F920FB60F921124A2
:100670000BB60F922F933F934F935F936F937F939C
:100680008F939F93AF93BF93EF93FF9383EB93E08D
:100690005EDEFF91EF91BF91AF919F918F917F911E
:1006A0006F915F914F913F912F910F900BBE0F90E3
:1006B0000FBE0F901F9018951F920F920FB60F92BA
:1006C00011240BB60F922F933F934F935F936F9329
:1006D0007F938F939F93AF93BF93EF93FF9383EB9E
:1006E00093E0A7D2FF91EF91BF91AF919F918F912E
:1006F0007F916F915F914F913F912F910F900BBE22
:100700000F900FBE0F901F901895362F90E0FC01B0
:10071000E45DFE4F4491FC01E451FE4F2491FC0145
:10072000EA55FE4F9491992309F46CC0442309F4CF
:1007300055C050E0FA013197E231F10508F04EC0A2
:100740008827EE58FF4F8F4F0C94050C8091800046
:100750008F7707C0809180008F7D03C080918000DB
:10076000877F809380003AC084B58F7702C084B5BC
:100770008F7D84BD33C08091B0008F7703C080919E
:10078000B0008F7D8093B00029C0809190008F775A
:1007900007C0809190008F7D03C080919000877F7B
:1007A000809390001BC08091A0008F7707C080913C
:1007B000A0008F7D03C08091A000877F8093A00060
:1007C0000DC0809120018F7707C0809120018F7D1F
:1007D00003C080912001877F80932001E92FF0E002
:1007E000EE0FFF1FEE58FE4FA591B4919FB7F894FE
:1007F000311104C08C912095282302C0EC912E2B3E
:100800002C939FBF08951F93CF93DF93182FEB0175
:10081000AAD1209711F460E004C0CF3FD10531F494
:1008200061E0812FDF91CF911F916FCFE12FF0E039
:10083000E45DFE4FE4918E2F90E0FC013197E231B0
:10084000F10508F09CC08827EC57FF4F8F4FDDC79C
:1008500084B5806884BDC7BD97C084B5806284BDFF
:10086000C8BD92C080918000806880938000D09342
:100870008900C093880088C0809180008062809346
:100880008000D0938B00C0938A007EC0809180004E
:10089000886080938000D0938D00C0938C0074C0DA
:1008A0008091B00080688093B000C093B3006CC0AA
:1008B0008091B00080628093B000C093B40064C0A7
:1008C00080919000806880939000D0939900C093AD
:1008D00098005AC080919000806280939000D093DD
:1008E0009B00C0939A0050C08091900088608093D4
:1008F0009000D0939D00C0939C0046C08091A000C2
:1009000080688093A0008091A0008F7B8093A000DE
:10091000D093A900C093A80037C08091A000806246
:100920008093A000D093AB00C093AA002DC080910B
:10093000A00088608093A000D093AD00C093AC006D
:1009400023C080912001806880932001D0932901E9
:10095000C093280119C080912001806280932001FA
:10096000D0932B01C0932A010FC080912001886091
:1009700080932001D0932D01C0932C0105C0C03875
:10098000D1050CF04DCF47CFDF91CF911F91089546
:100990001F920F920FB60F9211242F933F938F93B4
:1009A0009F93AF93BF938091600290916102A09159
:1009B0006202B091630230915F0223E0230F2D3772
:1009C00020F40196A11DB11D05C026E8230F029653
:1009D000A11DB11D20935F0280936002909361027C
:1009E000A0936202B093630280915B0290915C02DB
:1009F000A0915D02B0915E020196A11DB11D809390
:100A00005B0290935C02A0935D02B0935E02BF9183
:100A1000AF919F918F913F912F910F900FBE0F90AB
:100A20001F9018951F920F920FB60F9211240BB6BC
:100A30000F922F933F934F935F936F937F938F9377
:100A40009F93AF93BF93EF93FF9380916402909134
:100A500065028093B2008091570290915802A09154
:100A60005902B0915A020196A11DB11D80935702FF
:100A700090935802A0935902B0935A028091570262
:100A800090915802A0915902B0915A024091680287
:100A90005091690260916A0270916B028417950708
:100AA000A607B70710F18091560281111EC081E0A0
:100AB000809356028091570290915802A09159025A
:100AC000B0915A02841B950BA60BB70B809357026B
:100AD00090935802A0935902B0935A02E091660293
:100AE000F0916702199510925602FF91EF91BF9114
:100AF000AF919F918F917F916F915F914F913F91B6
:100B00002F910F900BBE0F900FBE0F901F90189556
:100B1000CF92DF92EF92FF920F931F93CF93DF93C9
:100B20006C017A018B01C0E0D0E0CE15DF0581F0C9
:100B3000D8016D918D01D601ED91FC910190F0816C
:100B4000E02DC6011995892B11F02196EECF7E017B
:100B5000C701DF91CF911F910F91FF90EF90DF9030
:100B6000CF9008955AD690E0FC01E451FE4F2491B5
:100B7000FC01EA55FE4F8491882399F090E0880F9C
:100B8000991FFC01E457FE4FA591B491FC01EE586A
:100B9000FE4F859194918FB7F894EC91E22BEC93F2
:100BA0008FBF0895FC01A089B18982E08C93A48550
:100BB000B5851C92A685B7858FEC8C93108EA48981
:100BC000B58986E08C93A289B3898C9180618C93DE
:100BD000A289B3898C9188608C93A289B3898C9106
:100BE00080688C930288F389E02D80818F7D8083DB
:100BF0000895CF93DF93C8E9D4E060E08C8185DD70
:100C000061E08D8182DD61E08E817FDD60E08F813A
:100C1000DF91CF917ACDCF93DF93C8E9D4E060E044
:100C200070E08A81F0DD60E070E08B81DF91CF9130
:100C3000EACDFC01A089B1898C91A689B78982FD92
:100C40000FC09C91818D8F5F8F73228D821749F029
:100C5000218DDF01A20FB11D5D969C93818F0895B8
:100C60008C9108956115710579F0FB0101900020C8
:100C7000E9F73197AF01461B570BDC01ED91FC9171
:100C80000280F381E02D199480E090E00895CF93E5
:100C9000DF93BC0186E193E0E5DFEC016DE372E0F8
:100CA00086E193E0DFDF8C0F9D1FDF91CF910895E8
:100CB000CF93DF93682F86E193E06BDBEC016DE36C
:100CC00072E086E193E0CEDF8C0F9D1FDF91CF9124
:100CD00008958F929F92AF92BF92EF92FF920F93DF
:100CE0001F93CF93DF93CDB7DEB7A1970FB6F894DC
:100CF000DEBF0FBECDBF7C01FA01CB0119A22230AD
:100D000008F42AE08E010F5D1F4F822E912CA12C3A
:100D1000B12CBF01A501940156D5F901CA010150BA
:100D200011096A3014F4605D01C0695CD8016C93EC
:100D3000232B242B252B69F7B801C70193DFA1963C
:100D40000FB6F894DEBF0FBECDBFDF91CF911F91DC
:100D50000F91FF90EF90BF90AF909F908F9008956C
:100D6000CF93DF93C8E9D4E0488150E060E070E0C1
:100D70002AE086E193E0ADDF6BE472E086E193E088
:100D800071DF498150E060E070E02AE086E193E0A5
:100D9000A0DF6DE372E086E193E0DF91CF9162CF57
:100DA000CF93DF93C8E9D4E08A876DE472E086E1EF
:100DB00093E058DF4A8550E060E070E02AE086E189
:100DC00093E087DF6DE372E086E193E0DF91CF91FE
:100DD00049CF789484B5826084BD84B5816084BD38
:100DE00085B5826085BD85B5816085BD80916E00C9
:100DF000816080936E0010928100809181008260FA
:100E00008093810080918100816080938100809136
:100E100080008160809380008091B1008460809325
:100E2000B1008091B00081608093B000809191000A
:100E30008260809391008091910081608093910005
:100E4000809190008160809390008091A1008260E9
:100E50008093A1008091A10081608093A100809186
:100E6000A00081608093A000809121018260809326
:100E700021018091210181608093210180912001D5
:100E800081608093200180917A00846080937A0051
:100E900080917A00826080937A0080917A008160EC
:100EA00080937A0080917A00806880937A00109213
:100EB000C10010929404109295041092960410921E
:100EC00097041092520410925304109254041092FA
:100ED0005504FADA6B017C014B015C0128EB820EB0
:100EE0002BE0921EA11CB11CEFDA6C157D058E055E
:100EF0009F0528F086169706A806B906A8F783EB83
:100F000093E090939304809392044CDEDDDA609337
:100F100052047093530480935404909355046EE2EA
:100F200072E080919204909193049CDECDDA6B0183
:100F30007C014B015C018AE0880E911CA11CB11C54
:100F4000C3DA6C157D058E059F0528F08616970679
:100F5000A806B906A8F781E08093660483EB93E0C6
:100F600021DE86E193E01EDE89E792E01BDE8EEE55
:100F700092E0A0E0B0E08093680290936902A093B1
:100F80006A02B0936B0280E792E0909367028093CD
:100F90006602809170008E7F809370008091B00017
:100FA0008C7F8093B0008091B100877F8093B100E7
:100FB0008091B6008F7D8093B600809170008D7F08
:100FC000809370008091B10084608093B100809123
:100FD000B1008C7F8093B10086E090E09093650231
:100FE000809364028DE0BFDD8CE0BDDD8BE0BBDD76
:100FF00060E08DE08ADB60E08CE087DB60E08BE026
:1010000084DB109274021092730210926E0210929E
:101010006D02CFEFD0E08DE2282E332433949BE293
:10102000492E5524539426E2622E7724739434E299
:10103000832E992493944FE1E42EFF24F3945DE1F1
:10104000C52EDD24D39462E4A62EBB24B3948091F4
:101050007302909174028036910509F40BC28A37AD
:10106000910509F41FC2892B59F580E28093A304EE
:101070008093A40486E193E043D9892B29F086E18B
:1010800093E01CD98093A30489E792E039D9892B96
:1010900069F089E792E012D98093A40460E472E0D9
:1010A00086E193E0DFDD8091A40402DE80E690E03B
:1010B00002C08AE790E0909374028093730204C0A8
:1010C000109274021092730280916D0290916E02E0
:1010D0008B3221E0920709F4F0C0B8F48F3121E09F
:1010E000920709F46DC038F4009741F18D319140B9
:1010F00009F43FC0B8C1843221E0920709F48BC0E3
:101100008632914009F4AEC0AEC1843321E092072B
:1011100009F44EC150F48D3221E0920709F4F4C075
:101120008233914009F41BC19EC18A3321E09207AA
:1011300009F46FC18234914009F095C18091A504F2
:10114000882309F47FC110926C0260916C026F3F9A
:1011500051F170E08DE057DBB7D960936F02709367
:1011600070028093710290937202D0926E02C092CC
:101170006D02AAD900916F02109170022091710244
:1011800030917202DC01CB01801B910BA20BB30BDF
:101190000597A105B10508F46AC180916C028F5FC3
:1011A00080936C02D2CF90D960936F0270937002DB
:1011B0008093710290937202F0926E02E0926D023F
:1011C00083D900916F0210917002209171023091C9
:1011D0007202601771078207930709F448C11092E1
:1011E0006C0200916C020F3F81F110E0BE01601BA8
:1011F000710B8DE008DBB8018CE005DB65D96093ED
:101200006F027093700280937102909372029092B9
:101210006E0280926D0258D900916F021091700297
:101220002091710230917202DC01CB01801B910B85
:10123000A20BB30B0597A105B10508F418C1809165
:101240006C028F5F80936C02CCCF3ED960936F02AB
:1012500070937002809371029093720270926E028A
:1012600060926D0231D900916F021091700220914D
:10127000710230917202601771078207930709F4B7
:10128000F6C010926C0200916C020F3F81F110E0E9
:10129000BE01601B710B8CE0B6DAB8018BE0B3DAEB
:1012A00013D960936F0270937002809371029093D0
:1012B000720250926E0240926D0206D900916F0246
:1012C000109170022091710230917202DC01CB0109
:1012D000801B910BA20BB30B0597A105B10508F478
:1012E000C6C080916C028F5F80936C02CCCFECD82B
:1012F00060936F02709370028093710290937202F8
:1013000030926E0220926D02DFD800916F02109130
:10131000700220917102309172026017710782078A
:10132000930709F4A4C010926C0200916C020F3F65
:1013300081F110E0B8018CE066DAB8018DE063DA83
:10134000C3D860936F027093700280937102909380
:10135000720282E391E090936E0280936D02B4D8A2
:1013600000916F021091700220917102309172020F
:10137000DC01CB01801B910BA20BB30B0597A105E0
:10138000B10508F474C080916C028F5F80936C0289
:10139000CCCF9AD860936F027093700280937102E1
:1013A0009093720284E391E090936E0280936D02B9
:1013B0008BD800916F0210917002209171023091D0
:1013C0007202601771078207930709F450C01092E8
:1013D0006C0280916C028F3F09F4B0CE8E01081B25
:1013E0001109B8018CE00FDAB8018DE00CDAB80110
:1013F0008BE009DA69D860936F0270937002809372
:101400007102909372028AE391E090936E0280934E
:101410006D025AD800916F021091700220917102F2
:1014200030917202DC01CB01801B910BA20BB30B3C
:101430000597A105B105D8F080916C028F5F80936C
:101440006C02C7CF60E070E08DE0DDD960E070E055
:101450008CE0D9D960E070E08BE0D5D9B0926E0213
:10146000A0926D0204C010926E0210926D020E9452
:101470003602EDCD8091A304803209F4F6CD81329D
:1014800009F4C9DB8091A304893611F484E003C018
:101490008D3619F483E084DCE8CD813709F009CE7C
:1014A00085E0F9CF8091A204853091F486E193E044
:1014B0000E948001892B09F4D8CD86E193E00E9437
:1014C0005E018093A3048093990480939804E2CFF3
:1014D000833009F0CACD8091A304803209F0E8DBA3
:1014E0008091A3048D3409F496C01CF5813409F46D
:1014F0006BC054F48B3209F4A0C08D3209F483C060
:10150000833209F0B2CDA3C08B3409F48DC074F5D9
:10151000843409F0AACD61E080919C04F6D860E0A3
:1015200080919D04F2D861E080919E04EED860E045
:1015300058C0873581F16CF4803509F483C0833558
:1015400009F43AC08F3409F090CD80919904865FF8
:1015500071C0843609F455C024F4813609F451C0B1
:1015600084CD833779F1873769F17FCD8091A504E8
:10157000882341F060E070E08091A00444D910928B
:10158000A50473CD61E070E08091A0043CD981E0B6
:101590008093A5046ACD2DDB6091990470E0809161
:1015A0009A0431D96091980470E080919B042BD902
:1015B00087E492E06CDB59CD61E080919C04A5D872
:1015C00060E007C028DB51CD60E080919C049DD88D
:1015D00061E080919D0499D860E080919E0495D847
:1015E00061E080919F0491D86091990470E08091AE
:1015F0009A0409D96091980470E080919B0403D902
:1016000034CDF7DAF1CF809199048A50833308F40E
:1016100082E380939904809198048A50809398047F
:101620008333A8F482E311C0809199048A508333F4
:1016300008F482E3809399040AC080919904865F3C
:101640008093990480919804865F8093980488DB46
:101650000CCDCF93DF93E9E7F2E01382128248EEDC
:1016600053E060E070E0448355836683778384E0D1
:1016700092E09183808325ED30E03587248724ED47
:1016800030E03787268720ED30E0318B208B21ED4D
:1016900030E0338B228B22ED30E0358B248B26ED2E
:1016A00030E0378B268B118E128E138E148EE6E16E
:1016B000F3E0138212824483558366837783918398
:1016C00080832DEC30E0358724872CEC30E03787A1
:1016D000268728EC30E0318B208B29EC30E0338BEF
:1016E000228B2AEC30E0358B248B2EEC30E0378BCC
:1016F000268B118E128E138E148EE3EBF3E0138281
:10170000128244835583668377839183808385EC3B
:1017100090E09587848784EC90E09787868780ECBB
:1017200090E0918B808B81EC90E0938B828B82ECAC
:1017300090E0958B848B86EC90E0978B868B118E56
:10174000128E138E148EE0E5F4E016821782108656
:101750001186128613861486158616861786108AB9
:10176000118A128A138A148A158AC8E9D4E081E0A2
:101770008D8784E68883898384E08A8785E08A83ED
:1017800086E08B838EE28C8380E38D8382E38E837D
:1017900084E38F8383E0888780E28B878C8761E096
:1017A00070E083E030D88A81DED98B81DCD98C81EE
:1017B000DAD98D81D8D98E81D6D98F81D4D988852F
:1017C000DF91CF91D0C9A1E21A2EAA1BBB1BFD014C
:1017D0000DC0AA1FBB1FEE1FFF1FA217B307E40710
:1017E000F50720F0A21BB30BE40BF50B661F771F68
:1017F000881F991F1A9469F7609570958095909548
:101800009B01AC01BD01CF010895EE0FFF1F881FA2
:101810008BBF0790F691E02D199481E090E0F89449
:0618200000C0F894FFCFA8
:1018260000000000C90188054F01150280015E0114
:1018360072016368203D20006D6F6465203D2000C5
:101846004D4F56450046494E440053455400564DAB
:101856004450565F317C315F564D4450560D0A0058
:10186600636832203D2000474F31005F004D6F64B2
:0618760065203D2000008A
:00000001FF
